{
  "contractName": "HashedTimelockERC721",
  "abi": [
    {
      "anonymous": false,
      "inputs": [
        {
          "indexed": true,
          "internalType": "bytes32",
          "name": "contractId",
          "type": "bytes32"
        },
        {
          "indexed": true,
          "internalType": "address",
          "name": "sender",
          "type": "address"
        },
        {
          "indexed": true,
          "internalType": "address",
          "name": "receiver",
          "type": "address"
        },
        {
          "indexed": false,
          "internalType": "address",
          "name": "tokenContract",
          "type": "address"
        },
        {
          "indexed": false,
          "internalType": "uint256",
          "name": "tokenId",
          "type": "uint256"
        },
        {
          "indexed": false,
          "internalType": "bytes32",
          "name": "hashlock",
          "type": "bytes32"
        },
        {
          "indexed": false,
          "internalType": "uint256",
          "name": "timelock",
          "type": "uint256"
        }
      ],
      "name": "HTLCERC721New",
      "type": "event"
    },
    {
      "anonymous": false,
      "inputs": [
        {
          "indexed": true,
          "internalType": "bytes32",
          "name": "contractId",
          "type": "bytes32"
        }
      ],
      "name": "HTLCERC721Refund",
      "type": "event"
    },
    {
      "anonymous": false,
      "inputs": [
        {
          "indexed": true,
          "internalType": "bytes32",
          "name": "contractId",
          "type": "bytes32"
        }
      ],
      "name": "HTLCERC721Withdraw",
      "type": "event"
    },
    {
      "inputs": [
        {
          "internalType": "address",
          "name": "_receiver",
          "type": "address"
        },
        {
          "internalType": "bytes32",
          "name": "_hashlock",
          "type": "bytes32"
        },
        {
          "internalType": "uint256",
          "name": "_timelock",
          "type": "uint256"
        },
        {
          "internalType": "address",
          "name": "_tokenContract",
          "type": "address"
        },
        {
          "internalType": "uint256",
          "name": "_tokenId",
          "type": "uint256"
        }
      ],
      "name": "newContract",
      "outputs": [
        {
          "internalType": "bytes32",
          "name": "contractId",
          "type": "bytes32"
        }
      ],
      "stateMutability": "nonpayable",
      "type": "function"
    },
    {
      "inputs": [
        {
          "internalType": "bytes32",
          "name": "_contractId",
          "type": "bytes32"
        },
        {
          "internalType": "bytes32",
          "name": "_preimage",
          "type": "bytes32"
        }
      ],
      "name": "withdraw",
      "outputs": [
        {
          "internalType": "bool",
          "name": "",
          "type": "bool"
        }
      ],
      "stateMutability": "nonpayable",
      "type": "function"
    },
    {
      "inputs": [
        {
          "internalType": "bytes32",
          "name": "_contractId",
          "type": "bytes32"
        }
      ],
      "name": "refund",
      "outputs": [
        {
          "internalType": "bool",
          "name": "",
          "type": "bool"
        }
      ],
      "stateMutability": "nonpayable",
      "type": "function"
    },
    {
      "inputs": [
        {
          "internalType": "bytes32",
          "name": "_contractId",
          "type": "bytes32"
        }
      ],
      "name": "getContract",
      "outputs": [
        {
          "internalType": "address",
          "name": "sender",
          "type": "address"
        },
        {
          "internalType": "address",
          "name": "receiver",
          "type": "address"
        },
        {
          "internalType": "address",
          "name": "tokenContract",
          "type": "address"
        },
        {
          "internalType": "uint256",
          "name": "tokenId",
          "type": "uint256"
        },
        {
          "internalType": "bytes32",
          "name": "hashlock",
          "type": "bytes32"
        },
        {
          "internalType": "uint256",
          "name": "timelock",
          "type": "uint256"
        },
        {
          "internalType": "bool",
          "name": "withdrawn",
          "type": "bool"
        },
        {
          "internalType": "bool",
          "name": "refunded",
          "type": "bool"
        },
        {
          "internalType": "bytes32",
          "name": "preimage",
          "type": "bytes32"
        }
      ],
      "stateMutability": "view",
      "type": "function"
    }
  ],
  "bytecode": "0x608060405234801561001057600080fd5b5061185b806100206000396000f3fe608060405234801561001057600080fd5b506004361061004c5760003560e01c8063398a7a981461005157806363615149146100815780637249fbb6146100b1578063e16c7d98146100e1575b600080fd5b61006b60048036038101906100669190610e6c565b610119565b6040516100789190611347565b60405180910390f35b61009b60048036038101906100969190610f35565b6105a9565b6040516100a8919061132c565b60405180910390f35b6100cb60048036038101906100c69190610ee3565b6108fb565b6040516100d8919061132c565b60405180910390f35b6100fb60048036038101906100f69190610ee3565b610c3b565b60405161011099989796959493929190611223565b60405180910390f35b600082823073ffffffffffffffffffffffffffffffffffffffff168273ffffffffffffffffffffffffffffffffffffffff1663081812fc836040518263ffffffff1660e01b815260040161016d91906114a2565b60206040518083038186803b15801561018557600080fd5b505afa158015610199573d6000803e3d6000fd5b505050506040513d601f19601f820116820180604052508101906101bd9190610e43565b73ffffffffffffffffffffffffffffffffffffffff1614610213576040517f08c379a000000000000000000000000000000000000000000000000000000000815260040161020a90611442565b60405180910390fd5b85428111610256576040517f08c379a000000000000000000000000000000000000000000000000000000000815260040161024d90611362565b60405180910390fd5b6002338a88888c8c60405160200161027396959493929190611181565b60405160208183030381529060405260405161028f919061120c565b602060405180830381855afa1580156102ac573d6000803e3d6000fd5b5050506040513d601f19601f820116820180604052508101906102cf9190610f0c565b93506102da84610d6c565b156102e457600080fd5b8573ffffffffffffffffffffffffffffffffffffffff166323b872dd3330886040518463ffffffff1660e01b8152600401610321939291906112b0565b600060405180830381600087803b15801561033b57600080fd5b505af115801561034f573d6000803e3d6000fd5b505050506040518061012001604052803373ffffffffffffffffffffffffffffffffffffffff1681526020018a73ffffffffffffffffffffffffffffffffffffffff1681526020018773ffffffffffffffffffffffffffffffffffffffff1681526020018681526020018981526020018881526020016000151581526020016000151581526020016000801b81525060008086815260200190815260200160002060008201518160000160006101000a81548173ffffffffffffffffffffffffffffffffffffffff021916908373ffffffffffffffffffffffffffffffffffffffff16021790555060208201518160010160006101000a81548173ffffffffffffffffffffffffffffffffffffffff021916908373ffffffffffffffffffffffffffffffffffffffff16021790555060408201518160020160006101000a81548173ffffffffffffffffffffffffffffffffffffffff021916908373ffffffffffffffffffffffffffffffffffffffff160217905550606082015181600301556080820151816004015560a0820151816005015560c08201518160060160006101000a81548160ff02191690831515021790555060e08201518160060160016101000a81548160ff02191690831515021790555061010082015181600701559050508873ffffffffffffffffffffffffffffffffffffffff163373ffffffffffffffffffffffffffffffffffffffff16857fb02ad9e7e61bb795ea1b7083cc09e3fd4d3a4ea3d79c5bd55a0960643dbc20ff89898d8d60405161059594939291906112e7565b60405180910390a450505095945050505050565b6000826105b581610d6c565b6105f4576040517f08c379a00000000000000000000000000000000000000000000000000000000081526004016105eb906113a2565b60405180910390fd5b838360028160405160200161060991906111f1565b604051602081830303815290604052604051610625919061120c565b602060405180830381855afa158015610642573d6000803e3d6000fd5b5050506040513d601f19601f820116820180604052508101906106659190610f0c565b60008084815260200190815260200160002060040154146106bb576040517f08c379a00000000000000000000000000000000000000000000000000000000081526004016106b290611482565b60405180910390fd5b853373ffffffffffffffffffffffffffffffffffffffff1660008083815260200190815260200160002060010160009054906101000a900473ffffffffffffffffffffffffffffffffffffffff1673ffffffffffffffffffffffffffffffffffffffff161461075f576040517f08c379a000000000000000000000000000000000000000000000000000000000815260040161075690611382565b60405180910390fd5b6000151560008083815260200190815260200160002060060160009054906101000a900460ff161515146107c8576040517f08c379a00000000000000000000000000000000000000000000000000000000081526004016107bf90611422565b60405180910390fd5b6000806000898152602001908152602001600020905086816007018190555060018160060160006101000a81548160ff0219169083151502179055508060020160009054906101000a900473ffffffffffffffffffffffffffffffffffffffff1673ffffffffffffffffffffffffffffffffffffffff166323b872dd308360010160009054906101000a900473ffffffffffffffffffffffffffffffffffffffff1684600301546040518463ffffffff1660e01b815260040161088d939291906112b0565b600060405180830381600087803b1580156108a757600080fd5b505af11580156108bb573d6000803e3d6000fd5b50505050877fb7358acefea4917350b35745bfd31b7cb6f943bec8883d36d66ab946141c27f660405160405180910390a260019550505050505092915050565b60008161090781610d6c565b610946576040517f08c379a000000000000000000000000000000000000000000000000000000000815260040161093d906113a2565b60405180910390fd5b823373ffffffffffffffffffffffffffffffffffffffff1660008083815260200190815260200160002060000160009054906101000a900473ffffffffffffffffffffffffffffffffffffffff1673ffffffffffffffffffffffffffffffffffffffff16146109ea576040517f08c379a00000000000000000000000000000000000000000000000000000000081526004016109e190611462565b60405180910390fd5b6000151560008083815260200190815260200160002060060160019054906101000a900460ff16151514610a53576040517f08c379a0000000000000000000000000000000000000000000000000000000008152600401610a4a90611402565b60405180910390fd5b6000151560008083815260200190815260200160002060060160009054906101000a900460ff16151514610abc576040517f08c379a0000000000000000000000000000000000000000000000000000000008152600401610ab3906113c2565b60405180910390fd5b42600080838152602001908152602001600020600501541115610b14576040517f08c379a0000000000000000000000000000000000000000000000000000000008152600401610b0b906113e2565b60405180910390fd5b6000806000868152602001908152602001600020905060018160060160016101000a81548160ff0219169083151502179055508060020160009054906101000a900473ffffffffffffffffffffffffffffffffffffffff1673ffffffffffffffffffffffffffffffffffffffff166323b872dd308360000160009054906101000a900473ffffffffffffffffffffffffffffffffffffffff1684600301546040518463ffffffff1660e01b8152600401610bd0939291906112b0565b600060405180830381600087803b158015610bea57600080fd5b505af1158015610bfe573d6000803e3d6000fd5b50505050847fba3a5e0fba071659b91c5265298818069091d4c67108a685ee376f779a606fa760405160405180910390a260019350505050919050565b6000806000806000806000806000801515610c558b610d6c565b15151415610c8e5760008060008060008060008060008460001b94508060001b9050985098509850985098509850985098509850610d5f565b60008060008c815260200190815260200160002090508060000160009054906101000a900473ffffffffffffffffffffffffffffffffffffffff168160010160009054906101000a900473ffffffffffffffffffffffffffffffffffffffff168260020160009054906101000a900473ffffffffffffffffffffffffffffffffffffffff168360030154846004015485600501548660060160009054906101000a900460ff168760060160019054906101000a900460ff168860070154995099509950995099509950995099509950505b9193959799909294969850565b60008073ffffffffffffffffffffffffffffffffffffffff1660008084815260200190815260200160002060000160009054906101000a900473ffffffffffffffffffffffffffffffffffffffff1673ffffffffffffffffffffffffffffffffffffffff1614159050919050565b600081359050610de9816117e0565b92915050565b600081519050610dfe816117e0565b92915050565b600081359050610e13816117f7565b92915050565b600081519050610e28816117f7565b92915050565b600081359050610e3d8161180e565b92915050565b600060208284031215610e5557600080fd5b6000610e6384828501610def565b91505092915050565b600080600080600060a08688031215610e8457600080fd5b6000610e9288828901610dda565b9550506020610ea388828901610e04565b9450506040610eb488828901610e2e565b9350506060610ec588828901610dda565b9250506080610ed688828901610e2e565b9150509295509295909350565b600060208284031215610ef557600080fd5b6000610f0384828501610e04565b91505092915050565b600060208284031215610f1e57600080fd5b6000610f2c84828501610e19565b91505092915050565b60008060408385031215610f4857600080fd5b6000610f5685828601610e04565b9250506020610f6785828601610e04565b9150509250929050565b610f7a816114e4565b82525050565b610f91610f8c826114e4565b611569565b82525050565b610fa0816114f6565b82525050565b610faf81611502565b82525050565b610fc6610fc182611502565b61157b565b82525050565b6000610fd7826114bd565b610fe181856114c8565b9350610ff1818560208601611536565b80840191505092915050565b600061100a6023836114d3565b9150611015826115ae565b604082019050919050565b600061102d601a836114d3565b9150611038826115fd565b602082019050919050565b60006110506019836114d3565b915061105b82611626565b602082019050919050565b6000611073601d836114d3565b915061107e8261164f565b602082019050919050565b60006110966023836114d3565b91506110a182611678565b604082019050919050565b60006110b9601c836114d3565b91506110c4826116c7565b602082019050919050565b60006110dc601f836114d3565b91506110e7826116f0565b602082019050919050565b60006110ff604f836114d3565b915061110a82611719565b606082019050919050565b60006111226016836114d3565b915061112d8261178e565b602082019050919050565b6000611145601c836114d3565b9150611150826117b7565b602082019050919050565b6111648161152c565b82525050565b61117b6111768261152c565b611597565b82525050565b600061118d8289610f80565b60148201915061119d8288610f80565b6014820191506111ad8287610f80565b6014820191506111bd828661116a565b6020820191506111cd8285610fb5565b6020820191506111dd828461116a565b602082019150819050979650505050505050565b60006111fd8284610fb5565b60208201915081905092915050565b60006112188284610fcc565b915081905092915050565b600061012082019050611239600083018c610f71565b611246602083018b610f71565b611253604083018a610f71565b611260606083018961115b565b61126d6080830188610fa6565b61127a60a083018761115b565b61128760c0830186610f97565b61129460e0830185610f97565b6112a2610100830184610fa6565b9a9950505050505050505050565b60006060820190506112c56000830186610f71565b6112d26020830185610f71565b6112df604083018461115b565b949350505050565b60006080820190506112fc6000830187610f71565b611309602083018661115b565b6113166040830185610fa6565b611323606083018461115b565b95945050505050565b60006020820190506113416000830184610f97565b92915050565b600060208201905061135c6000830184610fa6565b92915050565b6000602082019050818103600083015261137b81610ffd565b9050919050565b6000602082019050818103600083015261139b81611020565b9050919050565b600060208201905081810360008301526113bb81611043565b9050919050565b600060208201905081810360008301526113db81611066565b9050919050565b600060208201905081810360008301526113fb81611089565b9050919050565b6000602082019050818103600083015261141b816110ac565b9050919050565b6000602082019050818103600083015261143b816110cf565b9050919050565b6000602082019050818103600083015261145b816110f2565b9050919050565b6000602082019050818103600083015261147b81611115565b9050919050565b6000602082019050818103600083015261149b81611138565b9050919050565b60006020820190506114b7600083018461115b565b92915050565b600081519050919050565b600081905092915050565b600082825260208201905092915050565b60006114ef8261150c565b9050919050565b60008115159050919050565b6000819050919050565b600073ffffffffffffffffffffffffffffffffffffffff82169050919050565b6000819050919050565b60005b83811015611554578082015181840152602081019050611539565b83811115611563576000848401525b50505050565b600061157482611585565b9050919050565b6000819050919050565b6000611590826115a1565b9050919050565b6000819050919050565b60008160601b9050919050565b7f74696d656c6f636b2074696d65206d75737420626520696e207468652066757460008201527f7572650000000000000000000000000000000000000000000000000000000000602082015250565b7f776974686472617761626c653a206e6f74207265636569766572000000000000600082015250565b7f636f6e7472616374496420646f6573206e6f7420657869737400000000000000600082015250565b7f726566756e6461626c653a20616c72656164792077697468647261776e000000600082015250565b7f726566756e6461626c653a2074696d656c6f636b206e6f74207965742070617360008201527f7365640000000000000000000000000000000000000000000000000000000000602082015250565b7f726566756e6461626c653a20616c726561647920726566756e64656400000000600082015250565b7f776974686472617761626c653a20616c72656164792077697468647261776e00600082015250565b7f5468652048544c4320636f6e7472616374206d7573742068617665206265656e60008201527f2064657369676e6174656420616e20617070726f766564207370656e6465722060208201527f666f722074686520746f6b656e49640000000000000000000000000000000000604082015250565b7f726566756e6461626c653a206e6f742073656e64657200000000000000000000600082015250565b7f686173686c6f636b206861736820646f6573206e6f74206d6174636800000000600082015250565b6117e9816114e4565b81146117f457600080fd5b50565b61180081611502565b811461180b57600080fd5b50565b6118178161152c565b811461182257600080fd5b5056fea2646970667358221220a06f557dccf0408b7306c7fb433977bf0deecc62a5a4835d88a0aec1bc55686664736f6c63430008010033",
  "immutableReferences": {},
  "source": "// SPDX-License-Identifier: MIT\r\npragma solidity ^0.8.0;\r\n\r\nimport '../node_modules/@openzeppelin/contracts/token/ERC721/ERC721.sol';\r\n\r\n/**\r\n* @title Hashed Timelock Contracts (HTLCs) on Ethereum ERC721 tokens.\r\n*\r\n* This contract provides a way to create and keep HTLCs for ERC721 tokens.\r\n*\r\n* See HashedTimelock.sol for a contract that provides the same functions \r\n* for the native ETH token.\r\n*\r\n* Protocol:\r\n*\r\n*  1) newContract(receiver, hashlock, timelock, tokenContract, tokenId) - a \r\n*      sender calls this to create a new HTLC on a given token (tokenContract) \r\n*       for a given token ID. A 32 byte contract id is returned\r\n*  2) withdraw(contractId, preimage) - once the receiver knows the preimage of\r\n*      the hashlock hash they can claim the tokens with this function\r\n*  3) refund() - after timelock has expired and if the receiver did not \r\n*      withdraw the tokens the sender / creater of the HTLC can get their tokens \r\n*      back with this function.\r\n */\r\ncontract HashedTimelockERC721 {\r\n\r\n    event HTLCERC721New(\r\n        bytes32 indexed contractId,\r\n        address indexed sender,\r\n        address indexed receiver,\r\n        address tokenContract,\r\n        uint256 tokenId,\r\n        bytes32 hashlock,\r\n        uint256 timelock\r\n    );\r\n    event HTLCERC721Withdraw(bytes32 indexed contractId);\r\n    event HTLCERC721Refund(bytes32 indexed contractId);\r\n\r\n    struct LockContract {\r\n        address sender;\r\n        address receiver;\r\n        address tokenContract;\r\n        uint256 tokenId;\r\n        bytes32 hashlock;\r\n        uint256 timelock; // locked UNTIL this time. Unit depends on consensus algorithm. PoA, PoA and IBFT all use seconds. But Quorum Raft uses nano-seconds\r\n        bool withdrawn;\r\n        bool refunded;\r\n        bytes32 preimage;\r\n    }\r\n\r\n    modifier tokensTransferable(address _token, uint256 _tokenId) {\r\n        // ensure this contract is approved to transfer the designated token\r\n        // so that it is able to honor the claim request later\r\n        require(\r\n            ERC721(_token).getApproved(_tokenId) == address(this),\r\n            \"The HTLC contract must have been designated an approved spender for the tokenId\"\r\n        );\r\n        _;\r\n    }\r\n    modifier futureTimelock(uint256 _time) {\r\n        // only requirement is the timelock time is after the last blocktime (now).\r\n        // probably want something a bit further in the future then this.\r\n        // but this is still a useful sanity check:\r\n        require(_time > block.timestamp, \"timelock time must be in the future\");\r\n        _;\r\n    }\r\n    modifier contractExists(bytes32 _contractId) {\r\n        require(haveContract(_contractId), \"contractId does not exist\");\r\n        _;\r\n    }\r\n    modifier hashlockMatches(bytes32 _contractId, bytes32 _x) {\r\n        require(\r\n            contracts[_contractId].hashlock == sha256(abi.encodePacked(_x)),\r\n            \"hashlock hash does not match\"\r\n        );\r\n        _;\r\n    }\r\n    modifier withdrawable(bytes32 _contractId) {\r\n        require(contracts[_contractId].receiver == msg.sender, \"withdrawable: not receiver\");\r\n        require(contracts[_contractId].withdrawn == false, \"withdrawable: already withdrawn\");\r\n        // if we want to disallow claim to be made after the timeout, uncomment the following line\r\n        // require(contracts[_contractId].timelock > now, \"withdrawable: timelock time must be in the future\");\r\n        _;\r\n    }\r\n    modifier refundable(bytes32 _contractId) {\r\n        require(contracts[_contractId].sender == msg.sender, \"refundable: not sender\");\r\n        require(contracts[_contractId].refunded == false, \"refundable: already refunded\");\r\n        require(contracts[_contractId].withdrawn == false, \"refundable: already withdrawn\");\r\n        require(contracts[_contractId].timelock <= block.timestamp, \"refundable: timelock not yet passed\");\r\n        _;\r\n    }\r\n\r\n    mapping (bytes32 => LockContract) contracts;\r\n\r\n    /**\r\n     * @dev Sender / Payer sets up a new hash time lock contract depositing the\r\n     * funds and providing the reciever and terms.\r\n     *\r\n     * NOTE: _receiver must first call approve() on the token contract. \r\n     *       See isApprovedOrOwner check in tokensTransferable modifier.\r\n\r\n     * @param _receiver Receiver of the tokens.\r\n     * @param _hashlock A sha-2 sha256 hash hashlock.\r\n     * @param _timelock UNIX epoch seconds time that the lock expires at. \r\n     *                  Refunds can be made after this time.\r\n     * @param _tokenContract ERC20 Token contract address.\r\n     * @param _tokenId Id of the token to lock up.\r\n     * @return contractId Id of the new HTLC. This is needed for subsequent \r\n     *                    calls.\r\n     */\r\n    function newContract(\r\n        address _receiver,\r\n        bytes32 _hashlock,\r\n        uint256 _timelock,\r\n        address _tokenContract,\r\n        uint256 _tokenId\r\n    )\r\n        external\r\n        tokensTransferable(_tokenContract, _tokenId)\r\n        futureTimelock(_timelock)\r\n        returns (bytes32 contractId)\r\n    {\r\n        contractId = sha256(\r\n            abi.encodePacked(\r\n                msg.sender,\r\n                _receiver,\r\n                _tokenContract,\r\n                _tokenId,\r\n                _hashlock,\r\n                _timelock\r\n            )\r\n        );\r\n\r\n        // Reject if a contract already exists with the same parameters. The\r\n        // sender must change one of these parameters (ideally providing a\r\n        // different _hashlock).\r\n        if (haveContract(contractId))\r\n            revert();\r\n\r\n        // This contract becomes the temporary owner of the token\r\n        ERC721(_tokenContract).transferFrom(msg.sender, address(this), _tokenId);\r\n\r\n        contracts[contractId] = LockContract(\r\n            msg.sender,\r\n            _receiver,\r\n            _tokenContract,\r\n            _tokenId,\r\n            _hashlock,\r\n            _timelock,\r\n            false,\r\n            false,\r\n            0x0\r\n        );\r\n\r\n        emit HTLCERC721New(\r\n            contractId,\r\n            msg.sender,\r\n            _receiver,\r\n            _tokenContract,\r\n            _tokenId,\r\n            _hashlock,\r\n            _timelock\r\n        );\r\n    }\r\n\r\n    /**\r\n    * @dev Called by the receiver once they know the preimage of the hashlock.\r\n    * This will transfer ownership of the locked tokens to their address.\r\n    *\r\n    * @param _contractId Id of the HTLC.\r\n    * @param _preimage sha256(_preimage) should equal the contract hashlock.\r\n    * @return bool true on success\r\n     */\r\n    function withdraw(bytes32 _contractId, bytes32 _preimage)\r\n        external\r\n        contractExists(_contractId)\r\n        hashlockMatches(_contractId, _preimage)\r\n        withdrawable(_contractId)\r\n        returns (bool)\r\n    {\r\n        LockContract storage c = contracts[_contractId];\r\n        c.preimage = _preimage;\r\n        c.withdrawn = true;\r\n        ERC721(c.tokenContract).transferFrom(address(this), c.receiver, c.tokenId);\r\n        emit HTLCERC721Withdraw(_contractId);\r\n        return true;\r\n    }\r\n\r\n    /**\r\n     * @dev Called by the sender if there was no withdraw AND the time lock has\r\n     * expired. This will restore ownership of the tokens to the sender.\r\n     *\r\n     * @param _contractId Id of HTLC to refund from.\r\n     * @return bool true on success\r\n     */\r\n    function refund(bytes32 _contractId)\r\n        external\r\n        contractExists(_contractId)\r\n        refundable(_contractId)\r\n        returns (bool)\r\n    {\r\n        LockContract storage c = contracts[_contractId];\r\n        c.refunded = true;\r\n        ERC721(c.tokenContract).transferFrom(address(this), c.sender, c.tokenId);\r\n        emit HTLCERC721Refund(_contractId);\r\n        return true;\r\n    }\r\n\r\n    /*\r\n     * @dev Get contract details.\r\n     * @param _contractId HTLC contract id\r\n     * @return All parameters in struct LockContract for _contractId HTLC\r\n     */\r\n    function getContract(bytes32 _contractId)\r\n        public\r\n        view\r\n        returns (\r\n            address sender,\r\n            address receiver,\r\n            address tokenContract,\r\n            uint256 tokenId,\r\n            bytes32 hashlock,\r\n            uint256 timelock,\r\n            bool withdrawn,\r\n            bool refunded,\r\n            bytes32 preimage\r\n        )\r\n    {\r\n        if (haveContract(_contractId) == false)\r\n            return (address(0), address(0), address(0), 0, 0, 0, false, false, 0);\r\n        LockContract storage c = contracts[_contractId];\r\n        return (\r\n            c.sender,\r\n            c.receiver,\r\n            c.tokenContract,\r\n            c.tokenId,\r\n            c.hashlock,\r\n            c.timelock,\r\n            c.withdrawn,\r\n            c.refunded,\r\n            c.preimage\r\n        );\r\n    }\r\n\r\n    /**\r\n     * @dev Is there a contract with id _contractId.\r\n     * @param _contractId Id into contracts mapping.\r\n     */\r\n    function haveContract(bytes32 _contractId)\r\n        internal\r\n        view\r\n        returns (bool exists)\r\n    {\r\n        exists = (contracts[_contractId].sender != address(0));\r\n    }\r\n\r\n}",
  "sourcePath": "C:\\GitHub\\251-atomic-swap-ethereum-bsc\\contracts\\TokenERC721.sol",
  "compiler": {
    "name": "solc",
    "version": "0.8.1+commit.df193b15.Emscripten.clang"
  },
  "schemaVersion": "3.4.16",
  "updatedAt": "2023-10-30T18:37:04.921Z",
  "devdoc": {
    "kind": "dev",
    "methods": {
      "newContract(address,bytes32,uint256,address,uint256)": {
        "details": "Sender / Payer sets up a new hash time lock contract depositing the funds and providing the reciever and terms. NOTE: _receiver must first call approve() on the token contract.        See isApprovedOrOwner check in tokensTransferable modifier.",
        "params": {
          "_hashlock": "A sha-2 sha256 hash hashlock.",
          "_receiver": "Receiver of the tokens.",
          "_timelock": "UNIX epoch seconds time that the lock expires at.                   Refunds can be made after this time.",
          "_tokenContract": "ERC20 Token contract address.",
          "_tokenId": "Id of the token to lock up."
        },
        "returns": {
          "contractId": "Id of the new HTLC. This is needed for subsequent                     calls."
        }
      },
      "refund(bytes32)": {
        "details": "Called by the sender if there was no withdraw AND the time lock has expired. This will restore ownership of the tokens to the sender.",
        "params": {
          "_contractId": "Id of HTLC to refund from."
        },
        "returns": {
          "_0": "bool true on success"
        }
      },
      "withdraw(bytes32,bytes32)": {
        "details": "Called by the receiver once they know the preimage of the hashlock. This will transfer ownership of the locked tokens to their address.",
        "params": {
          "_contractId": "Id of the HTLC.",
          "_preimage": "sha256(_preimage) should equal the contract hashlock."
        },
        "returns": {
          "_0": "bool true on success"
        }
      }
    },
    "title": "Hashed Timelock Contracts (HTLCs) on Ethereum ERC721 tokens. This contract provides a way to create and keep HTLCs for ERC721 tokens. See HashedTimelock.sol for a contract that provides the same functions  for the native ETH token. Protocol:  1) newContract(receiver, hashlock, timelock, tokenContract, tokenId) - a       sender calls this to create a new HTLC on a given token (tokenContract)        for a given token ID. A 32 byte contract id is returned  2) withdraw(contractId, preimage) - once the receiver knows the preimage of      the hashlock hash they can claim the tokens with this function  3) refund() - after timelock has expired and if the receiver did not       withdraw the tokens the sender / creater of the HTLC can get their tokens       back with this function.",
    "version": 1
  },
  "userdoc": {
    "kind": "user",
    "methods": {},
    "version": 1
  }
}