{
  "contractName": "HTLC",
  "abi": [
    {
      "inputs": [
        {
          "internalType": "address",
          "name": "_recipient",
          "type": "address"
        },
        {
          "internalType": "address",
          "name": "_token",
          "type": "address"
        },
        {
          "internalType": "uint256",
          "name": "_amount",
          "type": "uint256"
        }
      ],
      "stateMutability": "nonpayable",
      "type": "constructor"
    },
    {
      "inputs": [],
      "name": "amount",
      "outputs": [
        {
          "internalType": "uint256",
          "name": "",
          "type": "uint256"
        }
      ],
      "stateMutability": "view",
      "type": "function",
      "constant": true
    },
    {
      "inputs": [],
      "name": "hash",
      "outputs": [
        {
          "internalType": "bytes32",
          "name": "",
          "type": "bytes32"
        }
      ],
      "stateMutability": "view",
      "type": "function",
      "constant": true
    },
    {
      "inputs": [],
      "name": "lockTime",
      "outputs": [
        {
          "internalType": "uint256",
          "name": "",
          "type": "uint256"
        }
      ],
      "stateMutability": "view",
      "type": "function",
      "constant": true
    },
    {
      "inputs": [],
      "name": "owner",
      "outputs": [
        {
          "internalType": "address",
          "name": "",
          "type": "address"
        }
      ],
      "stateMutability": "view",
      "type": "function",
      "constant": true
    },
    {
      "inputs": [],
      "name": "recipient",
      "outputs": [
        {
          "internalType": "address",
          "name": "",
          "type": "address"
        }
      ],
      "stateMutability": "view",
      "type": "function",
      "constant": true
    },
    {
      "inputs": [],
      "name": "secret",
      "outputs": [
        {
          "internalType": "string",
          "name": "",
          "type": "string"
        }
      ],
      "stateMutability": "view",
      "type": "function",
      "constant": true
    },
    {
      "inputs": [],
      "name": "startTime",
      "outputs": [
        {
          "internalType": "uint256",
          "name": "",
          "type": "uint256"
        }
      ],
      "stateMutability": "view",
      "type": "function",
      "constant": true
    },
    {
      "inputs": [],
      "name": "token",
      "outputs": [
        {
          "internalType": "contract IERC721",
          "name": "",
          "type": "address"
        }
      ],
      "stateMutability": "view",
      "type": "function",
      "constant": true
    },
    {
      "inputs": [],
      "name": "fund",
      "outputs": [],
      "stateMutability": "nonpayable",
      "type": "function"
    },
    {
      "inputs": [
        {
          "internalType": "string",
          "name": "_secret",
          "type": "string"
        }
      ],
      "name": "withdraw",
      "outputs": [],
      "stateMutability": "nonpayable",
      "type": "function"
    },
    {
      "inputs": [],
      "name": "refund",
      "outputs": [],
      "stateMutability": "nonpayable",
      "type": "function"
    }
  ],
  "bytecode": "0x60806040526127106001557ffd69353b27210d2567bc0ade61674bbc3fc01a558a61c2a0cb2b13d96f9387cd60001b6003553480156200003e57600080fd5b5060405162000ea038038062000ea0833981810160405281019062000064919062000165565b82600460006101000a81548173ffffffffffffffffffffffffffffffffffffffff021916908373ffffffffffffffffffffffffffffffffffffffff16021790555033600560006101000a81548173ffffffffffffffffffffffffffffffffffffffff021916908373ffffffffffffffffffffffffffffffffffffffff1602179055508060068190555081600760006101000a81548173ffffffffffffffffffffffffffffffffffffffff021916908373ffffffffffffffffffffffffffffffffffffffff1602179055505050506200022d565b6000815190506200014881620001f9565b92915050565b6000815190506200015f8162000213565b92915050565b6000806000606084860312156200017b57600080fd5b60006200018b8682870162000137565b93505060206200019e8682870162000137565b9250506040620001b1868287016200014e565b9150509250925092565b6000620001c882620001cf565b9050919050565b600073ffffffffffffffffffffffffffffffffffffffff82169050919050565b6000819050919050565b6200020481620001bb565b81146200021057600080fd5b50565b6200021e81620001ef565b81146200022a57600080fd5b50565b610c63806200023d6000396000f3fe608060405234801561001057600080fd5b50600436106100a95760003560e01c806378e979251161007157806378e979251461012e5780638da5cb5b1461014c578063aa8c217c1461016a578063b60d428814610188578063d1efd30d14610192578063fc0c546a146101b0576100a9565b806309bd5a60146100ae5780630d668087146100cc57806331fb67c2146100ea578063590e1ae31461010657806366d003ac14610110575b600080fd5b6100b66101ce565b6040516100c391906108a8565b60405180910390f35b6100d46101d4565b6040516100e19190610940565b60405180910390f35b61010460048036038101906100ff9190610712565b6101da565b005b61010e610335565b005b61011861045f565b6040516101259190610856565b60405180910390f35b610136610485565b6040516101439190610940565b60405180910390f35b61015461048b565b6040516101619190610856565b60405180910390f35b6101726104b1565b60405161017f9190610940565b60405180910390f35b6101906104b7565b005b61019a610553565b6040516101a791906108de565b60405180910390f35b6101b86105e1565b6040516101c591906108c3565b60405180910390f35b60035481565b60015481565b600354816040516020016101ee919061083f565b6040516020818303038152906040528051906020012014610244576040517f08c379a000000000000000000000000000000000000000000000000000000000815260040161023b90610900565b60405180910390fd5b806002908051906020019061025a929190610607565b50600760009054906101000a900473ffffffffffffffffffffffffffffffffffffffff1673ffffffffffffffffffffffffffffffffffffffff166323b872dd600560009054906101000a900473ffffffffffffffffffffffffffffffffffffffff16600560009054906101000a900473ffffffffffffffffffffffffffffffffffffffff166006546040518463ffffffff1660e01b815260040161030093929190610871565b600060405180830381600087803b15801561031a57600080fd5b505af115801561032e573d6000803e3d6000fd5b5050505050565b60015460005461034591906109d8565b4211610386576040517f08c379a000000000000000000000000000000000000000000000000000000000815260040161037d90610920565b60405180910390fd5b600760009054906101000a900473ffffffffffffffffffffffffffffffffffffffff1673ffffffffffffffffffffffffffffffffffffffff166323b872dd600560009054906101000a900473ffffffffffffffffffffffffffffffffffffffff16600560009054906101000a900473ffffffffffffffffffffffffffffffffffffffff166006546040518463ffffffff1660e01b815260040161042b93929190610871565b600060405180830381600087803b15801561044557600080fd5b505af1158015610459573d6000803e3d6000fd5b50505050565b600460009054906101000a900473ffffffffffffffffffffffffffffffffffffffff1681565b60005481565b600560009054906101000a900473ffffffffffffffffffffffffffffffffffffffff1681565b60065481565b42600081905550600760009054906101000a900473ffffffffffffffffffffffffffffffffffffffff1673ffffffffffffffffffffffffffffffffffffffff166323b872dd33306006546040518463ffffffff1660e01b815260040161051f93929190610871565b600060405180830381600087803b15801561053957600080fd5b505af115801561054d573d6000803e3d6000fd5b50505050565b6002805461056090610ada565b80601f016020809104026020016040519081016040528092919081815260200182805461058c90610ada565b80156105d95780601f106105ae576101008083540402835291602001916105d9565b820191906000526020600020905b8154815290600101906020018083116105bc57829003601f168201915b505050505081565b600760009054906101000a900473ffffffffffffffffffffffffffffffffffffffff1681565b82805461061390610ada565b90600052602060002090601f016020900481019282610635576000855561067c565b82601f1061064e57805160ff191683800117855561067c565b8280016001018555821561067c579182015b8281111561067b578251825591602001919060010190610660565b5b509050610689919061068d565b5090565b5b808211156106a657600081600090555060010161068e565b5090565b60006106bd6106b884610980565b61095b565b9050828152602081018484840111156106d557600080fd5b6106e0848285610a98565b509392505050565b600082601f8301126106f957600080fd5b81356107098482602086016106aa565b91505092915050565b60006020828403121561072457600080fd5b600082013567ffffffffffffffff81111561073e57600080fd5b61074a848285016106e8565b91505092915050565b61075c81610a2e565b82525050565b61076b81610a40565b82525050565b61077a81610a74565b82525050565b600061078b826109b1565b61079581856109bc565b93506107a5818560208601610aa7565b6107ae81610bca565b840191505092915050565b60006107c4826109b1565b6107ce81856109cd565b93506107de818560208601610aa7565b80840191505092915050565b60006107f7600c836109bc565b915061080282610bdb565b602082019050919050565b600061081a6009836109bc565b915061082582610c04565b602082019050919050565b61083981610a6a565b82525050565b600061084b82846107b9565b915081905092915050565b600060208201905061086b6000830184610753565b92915050565b60006060820190506108866000830186610753565b6108936020830185610753565b6108a06040830184610830565b949350505050565b60006020820190506108bd6000830184610762565b92915050565b60006020820190506108d86000830184610771565b92915050565b600060208201905081810360008301526108f88184610780565b905092915050565b60006020820190508181036000830152610919816107ea565b9050919050565b600060208201905081810360008301526109398161080d565b9050919050565b60006020820190506109556000830184610830565b92915050565b6000610965610976565b90506109718282610b0c565b919050565b6000604051905090565b600067ffffffffffffffff82111561099b5761099a610b9b565b5b6109a482610bca565b9050602081019050919050565b600081519050919050565b600082825260208201905092915050565b600081905092915050565b60006109e382610a6a565b91506109ee83610a6a565b9250827fffffffffffffffffffffffffffffffffffffffffffffffffffffffffffffffff03821115610a2357610a22610b3d565b5b828201905092915050565b6000610a3982610a4a565b9050919050565b6000819050919050565b600073ffffffffffffffffffffffffffffffffffffffff82169050919050565b6000819050919050565b6000610a7f82610a86565b9050919050565b6000610a9182610a4a565b9050919050565b82818337600083830152505050565b60005b83811015610ac5578082015181840152602081019050610aaa565b83811115610ad4576000848401525b50505050565b60006002820490506001821680610af257607f821691505b60208210811415610b0657610b05610b6c565b5b50919050565b610b1582610bca565b810181811067ffffffffffffffff82111715610b3457610b33610b9b565b5b80604052505050565b7f4e487b7100000000000000000000000000000000000000000000000000000000600052601160045260246000fd5b7f4e487b7100000000000000000000000000000000000000000000000000000000600052602260045260246000fd5b7f4e487b7100000000000000000000000000000000000000000000000000000000600052604160045260246000fd5b6000601f19601f8301169050919050565b7f77726f6e67207365637265740000000000000000000000000000000000000000600082015250565b7f746f6f206561726c79000000000000000000000000000000000000000000000060008201525056fea264697066735822122081313effbf19b9267d21275196da244c52dab80f17ad5631af57bf19aa7b3ed564736f6c63430008010033",
  "immutableReferences": {},
  "source": "// SPDX-License-Identifier: MIT\r\npragma solidity ^0.8.0; \r\n\r\nimport '../node_modules/@openzeppelin/contracts/token/ERC721/ERC721.sol';\r\n\r\ncontract HTLC {\r\n  uint public startTime;\r\n  uint public lockTime = 10000 seconds;\r\n  string public secret; //abracadabra \r\n  bytes32 public hash = 0xfd69353b27210d2567bc0ade61674bbc3fc01a558a61c2a0cb2b13d96f9387cd;\r\n  address public recipient;\r\n  address public owner; \r\n  uint public amount; \r\n  IERC721 public token;\r\n\r\n  constructor(address _recipient, address _token, uint _amount) { \r\n    recipient = _recipient;\r\n    owner = msg.sender; \r\n    amount = _amount;\r\n    token = IERC721(_token);\r\n  } \r\n\r\n  function fund() external {\r\n    startTime = block.timestamp;\r\n    token.transferFrom(msg.sender, address(this), amount);\r\n  }\r\n\r\n  function withdraw(string memory _secret) external { \r\n    require(keccak256(abi.encodePacked(_secret)) == hash, 'wrong secret');\r\n    secret = _secret; \r\n    token.transferFrom(owner, owner, amount); \r\n  } \r\n\r\n  function refund() external { \r\n    require(block.timestamp > startTime + lockTime, 'too early');\r\n    token.transferFrom(owner, owner, amount); \r\n  } \r\n}\r\n",
  "sourcePath": "C:\\GitHub\\251-atomic-swap-ethereum-bsc\\contracts\\HTLC.sol",
  "compiler": {
    "name": "solc",
    "version": "0.8.1+commit.df193b15.Emscripten.clang"
  },
  "schemaVersion": "3.4.15",
  "updatedAt": "2023-09-22T00:44:08.072Z",
  "networkType": "ethereum",
  "devdoc": {
    "kind": "dev",
    "methods": {},
    "version": 1
  },
  "userdoc": {
    "kind": "user",
    "methods": {},
    "version": 1
  }
}