{
  "contractName": "HTLC",
  "abi": [
    {
      "inputs": [
        {
          "internalType": "address",
          "name": "_recipient",
          "type": "address"
        },
        {
          "internalType": "address",
          "name": "_token",
          "type": "address"
        },
        {
          "internalType": "uint256",
          "name": "_amount",
          "type": "uint256"
        }
      ],
      "stateMutability": "nonpayable",
      "type": "constructor"
    },
    {
      "inputs": [],
      "name": "amount",
      "outputs": [
        {
          "internalType": "uint256",
          "name": "",
          "type": "uint256"
        }
      ],
      "stateMutability": "view",
      "type": "function",
      "constant": true
    },
    {
      "inputs": [],
      "name": "hash",
      "outputs": [
        {
          "internalType": "bytes32",
          "name": "",
          "type": "bytes32"
        }
      ],
      "stateMutability": "view",
      "type": "function",
      "constant": true
    },
    {
      "inputs": [],
      "name": "lockTime",
      "outputs": [
        {
          "internalType": "uint256",
          "name": "",
          "type": "uint256"
        }
      ],
      "stateMutability": "view",
      "type": "function",
      "constant": true
    },
    {
      "inputs": [],
      "name": "owner",
      "outputs": [
        {
          "internalType": "address",
          "name": "",
          "type": "address"
        }
      ],
      "stateMutability": "view",
      "type": "function",
      "constant": true
    },
    {
      "inputs": [],
      "name": "recipient",
      "outputs": [
        {
          "internalType": "address",
          "name": "",
          "type": "address"
        }
      ],
      "stateMutability": "view",
      "type": "function",
      "constant": true
    },
    {
      "inputs": [],
      "name": "secret",
      "outputs": [
        {
          "internalType": "string",
          "name": "",
          "type": "string"
        }
      ],
      "stateMutability": "view",
      "type": "function",
      "constant": true
    },
    {
      "inputs": [],
      "name": "startTime",
      "outputs": [
        {
          "internalType": "uint256",
          "name": "",
          "type": "uint256"
        }
      ],
      "stateMutability": "view",
      "type": "function",
      "constant": true
    },
    {
      "inputs": [],
      "name": "token",
      "outputs": [
        {
          "internalType": "contract IERC20",
          "name": "",
          "type": "address"
        }
      ],
      "stateMutability": "view",
      "type": "function",
      "constant": true
    },
    {
      "inputs": [],
      "name": "fund",
      "outputs": [],
      "stateMutability": "nonpayable",
      "type": "function"
    },
    {
      "inputs": [
        {
          "internalType": "string",
          "name": "_secret",
          "type": "string"
        }
      ],
      "name": "withdraw",
      "outputs": [],
      "stateMutability": "nonpayable",
      "type": "function"
    },
    {
      "inputs": [],
      "name": "refund",
      "outputs": [],
      "stateMutability": "nonpayable",
      "type": "function"
    }
  ],
  "bytecode": "0x60806040526127106001557ffd69353b27210d2567bc0ade61674bbc3fc01a558a61c2a0cb2b13d96f9387cd5f1b6003553480156200003c575f80fd5b5060405162001099380380620010998339818101604052810190620000629190620001cf565b8260045f6101000a81548173ffffffffffffffffffffffffffffffffffffffff021916908373ffffffffffffffffffffffffffffffffffffffff1602179055503360055f6101000a81548173ffffffffffffffffffffffffffffffffffffffff021916908373ffffffffffffffffffffffffffffffffffffffff160217905550806006819055508160075f6101000a81548173ffffffffffffffffffffffffffffffffffffffff021916908373ffffffffffffffffffffffffffffffffffffffff16021790555050505062000228565b5f80fd5b5f73ffffffffffffffffffffffffffffffffffffffff82169050919050565b5f620001618262000136565b9050919050565b620001738162000155565b81146200017e575f80fd5b50565b5f81519050620001918162000168565b92915050565b5f819050919050565b620001ab8162000197565b8114620001b6575f80fd5b50565b5f81519050620001c981620001a0565b92915050565b5f805f60608486031215620001e957620001e862000132565b5b5f620001f88682870162000181565b93505060206200020b8682870162000181565b92505060406200021e86828701620001b9565b9150509250925092565b610e6380620002365f395ff3fe608060405234801561000f575f80fd5b50600436106100a7575f3560e01c806378e979251161006f57806378e979251461012b5780638da5cb5b14610149578063aa8c217c14610167578063b60d428814610185578063d1efd30d1461018f578063fc0c546a146101ad576100a7565b806309bd5a60146100ab5780630d668087146100c957806331fb67c2146100e7578063590e1ae31461010357806366d003ac1461010d575b5f80fd5b6100b36101cb565b6040516100c091906105ed565b60405180910390f35b6100d16101d1565b6040516100de919061061e565b60405180910390f35b61010160048036038101906100fc9190610784565b6101d7565b005b61010b610314565b005b610115610426565b604051610122919061080a565b60405180910390f35b61013361044b565b604051610140919061061e565b60405180910390f35b610151610450565b60405161015e919061080a565b60405180910390f35b61016f610475565b60405161017c919061061e565b60405180910390f35b61018d61047b565b005b610197610524565b6040516101a4919061089d565b60405180910390f35b6101b56105b0565b6040516101c29190610918565b60405180910390f35b60035481565b60015481565b600354816040516020016101eb919061096b565b6040516020818303038152906040528051906020012014610241576040517f08c379a0000000000000000000000000000000000000000000000000000000008152600401610238906109cb565b60405180910390fd5b80600290816102509190610bda565b5060075f9054906101000a900473ffffffffffffffffffffffffffffffffffffffff1673ffffffffffffffffffffffffffffffffffffffff1663a9059cbb60045f9054906101000a900473ffffffffffffffffffffffffffffffffffffffff166006546040518363ffffffff1660e01b81526004016102d0929190610ca9565b6020604051808303815f875af11580156102ec573d5f803e3d5ffd5b505050506040513d601f19601f820116820180604052508101906103109190610d05565b5050565b6001545f546103239190610d5d565b4211610364576040517f08c379a000000000000000000000000000000000000000000000000000000000815260040161035b90610dda565b60405180910390fd5b60075f9054906101000a900473ffffffffffffffffffffffffffffffffffffffff1673ffffffffffffffffffffffffffffffffffffffff1663a9059cbb60055f9054906101000a900473ffffffffffffffffffffffffffffffffffffffff166006546040518363ffffffff1660e01b81526004016103e3929190610ca9565b6020604051808303815f875af11580156103ff573d5f803e3d5ffd5b505050506040513d601f19601f820116820180604052508101906104239190610d05565b50565b60045f9054906101000a900473ffffffffffffffffffffffffffffffffffffffff1681565b5f5481565b60055f9054906101000a900473ffffffffffffffffffffffffffffffffffffffff1681565b60065481565b425f8190555060075f9054906101000a900473ffffffffffffffffffffffffffffffffffffffff1673ffffffffffffffffffffffffffffffffffffffff166323b872dd33306006546040518463ffffffff1660e01b81526004016104e193929190610df8565b6020604051808303815f875af11580156104fd573d5f803e3d5ffd5b505050506040513d601f19601f820116820180604052508101906105219190610d05565b50565b6002805461053190610a16565b80601f016020809104026020016040519081016040528092919081815260200182805461055d90610a16565b80156105a85780601f1061057f576101008083540402835291602001916105a8565b820191905f5260205f20905b81548152906001019060200180831161058b57829003601f168201915b505050505081565b60075f9054906101000a900473ffffffffffffffffffffffffffffffffffffffff1681565b5f819050919050565b6105e7816105d5565b82525050565b5f6020820190506106005f8301846105de565b92915050565b5f819050919050565b61061881610606565b82525050565b5f6020820190506106315f83018461060f565b92915050565b5f604051905090565b5f80fd5b5f80fd5b5f80fd5b5f80fd5b5f601f19601f8301169050919050565b7f4e487b71000000000000000000000000000000000000000000000000000000005f52604160045260245ffd5b61069682610650565b810181811067ffffffffffffffff821117156106b5576106b4610660565b5b80604052505050565b5f6106c7610637565b90506106d3828261068d565b919050565b5f67ffffffffffffffff8211156106f2576106f1610660565b5b6106fb82610650565b9050602081019050919050565b828183375f83830152505050565b5f610728610723846106d8565b6106be565b9050828152602081018484840111156107445761074361064c565b5b61074f848285610708565b509392505050565b5f82601f83011261076b5761076a610648565b5b813561077b848260208601610716565b91505092915050565b5f6020828403121561079957610798610640565b5b5f82013567ffffffffffffffff8111156107b6576107b5610644565b5b6107c284828501610757565b91505092915050565b5f73ffffffffffffffffffffffffffffffffffffffff82169050919050565b5f6107f4826107cb565b9050919050565b610804816107ea565b82525050565b5f60208201905061081d5f8301846107fb565b92915050565b5f81519050919050565b5f82825260208201905092915050565b5f5b8381101561085a57808201518184015260208101905061083f565b5f8484015250505050565b5f61086f82610823565b610879818561082d565b935061088981856020860161083d565b61089281610650565b840191505092915050565b5f6020820190508181035f8301526108b58184610865565b905092915050565b5f819050919050565b5f6108e06108db6108d6846107cb565b6108bd565b6107cb565b9050919050565b5f6108f1826108c6565b9050919050565b5f610902826108e7565b9050919050565b610912816108f8565b82525050565b5f60208201905061092b5f830184610909565b92915050565b5f81905092915050565b5f61094582610823565b61094f8185610931565b935061095f81856020860161083d565b80840191505092915050565b5f610976828461093b565b915081905092915050565b7f77726f6e672073656372657400000000000000000000000000000000000000005f82015250565b5f6109b5600c8361082d565b91506109c082610981565b602082019050919050565b5f6020820190508181035f8301526109e2816109a9565b9050919050565b7f4e487b71000000000000000000000000000000000000000000000000000000005f52602260045260245ffd5b5f6002820490506001821680610a2d57607f821691505b602082108103610a4057610a3f6109e9565b5b50919050565b5f819050815f5260205f209050919050565b5f6020601f8301049050919050565b5f82821b905092915050565b5f60088302610aa27fffffffffffffffffffffffffffffffffffffffffffffffffffffffffffffffff82610a67565b610aac8683610a67565b95508019841693508086168417925050509392505050565b5f610ade610ad9610ad484610606565b6108bd565b610606565b9050919050565b5f819050919050565b610af783610ac4565b610b0b610b0382610ae5565b848454610a73565b825550505050565b5f90565b610b1f610b13565b610b2a818484610aee565b505050565b5b81811015610b4d57610b425f82610b17565b600181019050610b30565b5050565b601f821115610b9257610b6381610a46565b610b6c84610a58565b81016020851015610b7b578190505b610b8f610b8785610a58565b830182610b2f565b50505b505050565b5f82821c905092915050565b5f610bb25f1984600802610b97565b1980831691505092915050565b5f610bca8383610ba3565b9150826002028217905092915050565b610be382610823565b67ffffffffffffffff811115610bfc57610bfb610660565b5b610c068254610a16565b610c11828285610b51565b5f60209050601f831160018114610c42575f8415610c30578287015190505b610c3a8582610bbf565b865550610ca1565b601f198416610c5086610a46565b5f5b82811015610c7757848901518255600182019150602085019450602081019050610c52565b86831015610c945784890151610c90601f891682610ba3565b8355505b6001600288020188555050505b505050505050565b5f604082019050610cbc5f8301856107fb565b610cc9602083018461060f565b9392505050565b5f8115159050919050565b610ce481610cd0565b8114610cee575f80fd5b50565b5f81519050610cff81610cdb565b92915050565b5f60208284031215610d1a57610d19610640565b5b5f610d2784828501610cf1565b91505092915050565b7f4e487b71000000000000000000000000000000000000000000000000000000005f52601160045260245ffd5b5f610d6782610606565b9150610d7283610606565b9250828201905080821115610d8a57610d89610d30565b5b92915050565b7f746f6f206561726c7900000000000000000000000000000000000000000000005f82015250565b5f610dc460098361082d565b9150610dcf82610d90565b602082019050919050565b5f6020820190508181035f830152610df181610db8565b9050919050565b5f606082019050610e0b5f8301866107fb565b610e1860208301856107fb565b610e25604083018461060f565b94935050505056fea264697066735822122037afaff08b7335ea1fa6e925ba442458ed0219b00bc1f5e4eafb147b3ccfb5f564736f6c63430008140033",
  "immutableReferences": {},
  "source": "// SPDX-License-Identifier: MIT\r\npragma solidity ^0.8.0; \r\n\r\nimport '../node_modules/@openzeppelin/contracts/token/ERC20/ERC20.sol';\r\n\r\ncontract HTLC {\r\n  uint public startTime;\r\n  uint public lockTime = 10000 seconds;\r\n  string public secret; //abracadabra \r\n  bytes32 public hash = 0xfd69353b27210d2567bc0ade61674bbc3fc01a558a61c2a0cb2b13d96f9387cd;\r\n  address public recipient;\r\n  address public owner; \r\n  uint public amount; \r\n  IERC20 public token;\r\n\r\n  constructor(address _recipient, address _token, uint _amount) { \r\n    recipient = _recipient;\r\n    owner = msg.sender; \r\n    amount = _amount;\r\n    token = IERC20(_token);\r\n  } \r\n\r\n  function fund() external {\r\n    startTime = block.timestamp;\r\n    token.transferFrom(msg.sender, address(this), amount);\r\n  }\r\n\r\n  function withdraw(string memory _secret) external { \r\n    require(keccak256(abi.encodePacked(_secret)) == hash, 'wrong secret');\r\n    secret = _secret; \r\n    token.transfer(recipient, amount); \r\n  } \r\n\r\n  function refund() external { \r\n    require(block.timestamp > startTime + lockTime, 'too early');\r\n    token.transfer(owner, amount); \r\n  } \r\n}\r\n",
  "sourcePath": "C:\\GitHub\\251-atomic-swap-ethereum-bsc\\contracts\\HTLC.sol",
  "compiler": {
    "name": "solc",
    "version": "0.8.20+commit.a1b79de6.Emscripten.clang"
  },
  "schemaVersion": "3.4.16",
  "updatedAt": "2024-03-15T17:38:21.331Z",
  "networkType": "ethereum",
  "devdoc": {
    "kind": "dev",
    "methods": {},
    "version": 1
  },
  "userdoc": {
    "kind": "user",
    "methods": {},
    "version": 1
  }
}