{
  "contractName": "HTLC",
  "abi": [
    {
      "inputs": [
        {
          "internalType": "address",
          "name": "_token",
          "type": "address"
        },
        {
          "internalType": "address",
          "name": "_recipient",
          "type": "address"
        },
        {
          "internalType": "uint256",
          "name": "_amount",
          "type": "uint256"
        }
      ],
      "stateMutability": "nonpayable",
      "type": "constructor"
    },
    {
      "inputs": [],
      "name": "amount",
      "outputs": [
        {
          "internalType": "uint256",
          "name": "",
          "type": "uint256"
        }
      ],
      "stateMutability": "view",
      "type": "function"
    },
    {
      "inputs": [],
      "name": "hash",
      "outputs": [
        {
          "internalType": "bytes32",
          "name": "",
          "type": "bytes32"
        }
      ],
      "stateMutability": "view",
      "type": "function"
    },
    {
      "inputs": [],
      "name": "lockTime",
      "outputs": [
        {
          "internalType": "uint256",
          "name": "",
          "type": "uint256"
        }
      ],
      "stateMutability": "view",
      "type": "function"
    },
    {
      "inputs": [],
      "name": "owner",
      "outputs": [
        {
          "internalType": "address",
          "name": "",
          "type": "address"
        }
      ],
      "stateMutability": "view",
      "type": "function"
    },
    {
      "inputs": [],
      "name": "recipient",
      "outputs": [
        {
          "internalType": "address",
          "name": "",
          "type": "address"
        }
      ],
      "stateMutability": "view",
      "type": "function"
    },
    {
      "inputs": [],
      "name": "secret",
      "outputs": [
        {
          "internalType": "string",
          "name": "",
          "type": "string"
        }
      ],
      "stateMutability": "view",
      "type": "function"
    },
    {
      "inputs": [],
      "name": "startTime",
      "outputs": [
        {
          "internalType": "uint256",
          "name": "",
          "type": "uint256"
        }
      ],
      "stateMutability": "view",
      "type": "function"
    },
    {
      "inputs": [
        {
          "internalType": "string",
          "name": "_secret",
          "type": "string"
        }
      ],
      "name": "withdraw",
      "outputs": [],
      "stateMutability": "nonpayable",
      "type": "function"
    },
    {
      "inputs": [],
      "name": "refund",
      "outputs": [],
      "stateMutability": "nonpayable",
      "type": "function"
    }
  ],
  "bytecode": "0x60806040526127106001557ffd69353b27210d2567bc0ade61674bbc3fc01a558a61c2a0cb2b13d96f9387cd60001b6003553480156200003e57600080fd5b5060405162000cfe38038062000cfe833981810160405281019062000064919062000124565b81600460006101000a81548173ffffffffffffffffffffffffffffffffffffffff021916908373ffffffffffffffffffffffffffffffffffffffff16021790555033600560006101000a81548173ffffffffffffffffffffffffffffffffffffffff021916908373ffffffffffffffffffffffffffffffffffffffff16021790555080600681905550505050620001ec565b6000815190506200010781620001b8565b92915050565b6000815190506200011e81620001d2565b92915050565b6000806000606084860312156200013a57600080fd5b60006200014a86828701620000f6565b93505060206200015d86828701620000f6565b925050604062000170868287016200010d565b9150509250925092565b600062000187826200018e565b9050919050565b600073ffffffffffffffffffffffffffffffffffffffff82169050919050565b6000819050919050565b620001c3816200017a565b8114620001cf57600080fd5b50565b620001dd81620001ae565b8114620001e957600080fd5b50565b610b0280620001fc6000396000f3fe608060405234801561001057600080fd5b50600436106100935760003560e01c806366d003ac1161006657806366d003ac146100fa57806378e97925146101185780638da5cb5b14610136578063aa8c217c14610154578063d1efd30d1461017257610093565b806309bd5a60146100985780630d668087146100b657806331fb67c2146100d4578063590e1ae3146100f0575b600080fd5b6100a0610190565b6040516100ad919061073d565b60405180910390f35b6100be610196565b6040516100cb91906107da565b60405180910390f35b6100ee60048036038101906100e991906105ca565b61019c565b005b6100f861028b565b005b6101026103d9565b60405161010f9190610722565b60405180910390f35b6101206103ff565b60405161012d91906107da565b60405180910390f35b61013e610405565b60405161014b9190610722565b60405180910390f35b61015c61042b565b60405161016991906107da565b60405180910390f35b61017a610431565b6040516101879190610758565b60405180910390f35b60035481565b60015481565b600354816040516020016101b0919061070b565b6040516020818303038152906040528051906020012014610206576040517f08c379a00000000000000000000000000000000000000000000000000000000081526004016101fd9061079a565b60405180910390fd5b806002908051906020019061021c9291906104bf565b50600460009054906101000a900473ffffffffffffffffffffffffffffffffffffffff1673ffffffffffffffffffffffffffffffffffffffff166108fc6006549081150290604051600060405180830381858888f19350505050158015610287573d6000803e3d6000fd5b5050565b60015460005461029b9190610872565b42116102dc576040517f08c379a00000000000000000000000000000000000000000000000000000000081526004016102d3906107ba565b60405180910390fd5b3373ffffffffffffffffffffffffffffffffffffffff16600560009054906101000a900473ffffffffffffffffffffffffffffffffffffffff1673ffffffffffffffffffffffffffffffffffffffff161461036c576040517f08c379a00000000000000000000000000000000000000000000000000000000081526004016103639061077a565b60405180910390fd5b600560009054906101000a900473ffffffffffffffffffffffffffffffffffffffff1673ffffffffffffffffffffffffffffffffffffffff166108fc6006549081150290604051600060405180830381858888f193505050501580156103d6573d6000803e3d6000fd5b50565b600460009054906101000a900473ffffffffffffffffffffffffffffffffffffffff1681565b60005481565b600560009054906101000a900473ffffffffffffffffffffffffffffffffffffffff1681565b60065481565b6002805461043e90610950565b80601f016020809104026020016040519081016040528092919081815260200182805461046a90610950565b80156104b75780601f1061048c576101008083540402835291602001916104b7565b820191906000526020600020905b81548152906001019060200180831161049a57829003601f168201915b505050505081565b8280546104cb90610950565b90600052602060002090601f0160209004810192826104ed5760008555610534565b82601f1061050657805160ff1916838001178555610534565b82800160010185558215610534579182015b82811115610533578251825591602001919060010190610518565b5b5090506105419190610545565b5090565b5b8082111561055e576000816000905550600101610546565b5090565b60006105756105708461081a565b6107f5565b90508281526020810184848401111561058d57600080fd5b61059884828561090e565b509392505050565b600082601f8301126105b157600080fd5b81356105c1848260208601610562565b91505092915050565b6000602082840312156105dc57600080fd5b600082013567ffffffffffffffff8111156105f657600080fd5b610602848285016105a0565b91505092915050565b610614816108c8565b82525050565b610623816108da565b82525050565b60006106348261084b565b61063e8185610856565b935061064e81856020860161091d565b61065781610a40565b840191505092915050565b600061066d8261084b565b6106778185610867565b935061068781856020860161091d565b80840191505092915050565b60006106a0601383610856565b91506106ab82610a51565b602082019050919050565b60006106c3600c83610856565b91506106ce82610a7a565b602082019050919050565b60006106e6600983610856565b91506106f182610aa3565b602082019050919050565b61070581610904565b82525050565b60006107178284610662565b915081905092915050565b6000602082019050610737600083018461060b565b92915050565b6000602082019050610752600083018461061a565b92915050565b600060208201905081810360008301526107728184610629565b905092915050565b6000602082019050818103600083015261079381610693565b9050919050565b600060208201905081810360008301526107b3816106b6565b9050919050565b600060208201905081810360008301526107d3816106d9565b9050919050565b60006020820190506107ef60008301846106fc565b92915050565b60006107ff610810565b905061080b8282610982565b919050565b6000604051905090565b600067ffffffffffffffff82111561083557610834610a11565b5b61083e82610a40565b9050602081019050919050565b600081519050919050565b600082825260208201905092915050565b600081905092915050565b600061087d82610904565b915061088883610904565b9250827fffffffffffffffffffffffffffffffffffffffffffffffffffffffffffffffff038211156108bd576108bc6109b3565b5b828201905092915050565b60006108d3826108e4565b9050919050565b6000819050919050565b600073ffffffffffffffffffffffffffffffffffffffff82169050919050565b6000819050919050565b82818337600083830152505050565b60005b8381101561093b578082015181840152602081019050610920565b8381111561094a576000848401525b50505050565b6000600282049050600182168061096857607f821691505b6020821081141561097c5761097b6109e2565b5b50919050565b61098b82610a40565b810181811067ffffffffffffffff821117156109aa576109a9610a11565b5b80604052505050565b7f4e487b7100000000000000000000000000000000000000000000000000000000600052601160045260246000fd5b7f4e487b7100000000000000000000000000000000000000000000000000000000600052602260045260246000fd5b7f4e487b7100000000000000000000000000000000000000000000000000000000600052604160045260246000fd5b6000601f19601f8301169050919050565b7f4e6f742074686520746f6b656e206f776e657200000000000000000000000000600082015250565b7f77726f6e67207365637265740000000000000000000000000000000000000000600082015250565b7f746f6f206561726c79000000000000000000000000000000000000000000000060008201525056fea26469706673582212208edb2d162afb079ef5c31c6ba8e84410232d3046e30ec0a59acc7b7f12c36a9b64736f6c63430008010033",
  "immutableReferences": {},
  "source": "// SPDX-License-Identifier: MIT\r\npragma solidity ^0.8.0;\r\n\r\nimport \"../node_modules/@openzeppelin/contracts/token/ERC721/ERC721.sol\";\r\nimport \"../node_modules/@openzeppelin/contracts/access/Ownable.sol\";\r\n\r\ncontract HTLC {\r\n    uint public startTime;\r\n    uint public lockTime = 10000 seconds;\r\n    string public secret; //abracadabra\r\n    bytes32 public hash = 0xfd69353b27210d2567bc0ade61674bbc3fc01a558a61c2a0cb2b13d96f9387cd;\r\n    address public recipient;\r\n    address public owner;\r\n    uint public amount;\r\n\r\n    constructor(\r\n        address _token,\r\n        address _recipient,\r\n        uint256 _amount \r\n    ) {\r\n        recipient = _recipient;\r\n        owner = msg.sender; \r\n        amount = _amount;\r\n    }\r\n\r\n    function withdraw(string memory _secret) external {\r\n        require(keccak256(abi.encodePacked(_secret)) == hash, \"wrong secret\");\r\n        secret = _secret;\r\n        payable(recipient).transfer(amount);\r\n    }\r\n\r\n    function refund() external {\r\n        require(block.timestamp > startTime + lockTime, \"too early\");\r\n        require(owner == msg.sender, \"Not the token owner\");\r\n        payable(owner).transfer(amount);\r\n    }\r\n}\r\n",
  "sourcePath": "C:\\GitHub\\251-atomic-swap-ethereum-bsc\\contracts\\HTLC.sol",
  "compiler": {
    "name": "solc",
    "version": "0.8.1+commit.df193b15.Emscripten.clang"
  },
  "schemaVersion": "3.4.16",
  "updatedAt": "2023-10-30T18:37:04.905Z",
  "devdoc": {
    "kind": "dev",
    "methods": {},
    "version": 1
  },
  "userdoc": {
    "kind": "user",
    "methods": {},
    "version": 1
  }
}