{
  "contractName": "Token",
  "abi": [
    {
      "inputs": [
        {
          "internalType": "string",
          "name": "name",
          "type": "string"
        },
        {
          "internalType": "string",
          "name": "ticker",
          "type": "string"
        }
      ],
      "stateMutability": "nonpayable",
      "type": "constructor"
    },
    {
      "anonymous": false,
      "inputs": [
        {
          "indexed": true,
          "internalType": "address",
          "name": "owner",
          "type": "address"
        },
        {
          "indexed": true,
          "internalType": "address",
          "name": "approved",
          "type": "address"
        },
        {
          "indexed": true,
          "internalType": "uint256",
          "name": "tokenId",
          "type": "uint256"
        }
      ],
      "name": "Approval",
      "type": "event"
    },
    {
      "anonymous": false,
      "inputs": [
        {
          "indexed": true,
          "internalType": "address",
          "name": "owner",
          "type": "address"
        },
        {
          "indexed": true,
          "internalType": "address",
          "name": "operator",
          "type": "address"
        },
        {
          "indexed": false,
          "internalType": "bool",
          "name": "approved",
          "type": "bool"
        }
      ],
      "name": "ApprovalForAll",
      "type": "event"
    },
    {
      "anonymous": false,
      "inputs": [
        {
          "indexed": true,
          "internalType": "address",
          "name": "previousOwner",
          "type": "address"
        },
        {
          "indexed": true,
          "internalType": "address",
          "name": "newOwner",
          "type": "address"
        }
      ],
      "name": "OwnershipTransferred",
      "type": "event"
    },
    {
      "anonymous": false,
      "inputs": [
        {
          "indexed": true,
          "internalType": "address",
          "name": "from",
          "type": "address"
        },
        {
          "indexed": true,
          "internalType": "address",
          "name": "to",
          "type": "address"
        },
        {
          "indexed": true,
          "internalType": "uint256",
          "name": "tokenId",
          "type": "uint256"
        }
      ],
      "name": "Transfer",
      "type": "event"
    },
    {
      "inputs": [
        {
          "internalType": "address",
          "name": "to",
          "type": "address"
        },
        {
          "internalType": "uint256",
          "name": "tokenId",
          "type": "uint256"
        }
      ],
      "name": "approve",
      "outputs": [],
      "stateMutability": "nonpayable",
      "type": "function"
    },
    {
      "inputs": [
        {
          "internalType": "address",
          "name": "owner",
          "type": "address"
        }
      ],
      "name": "balanceOf",
      "outputs": [
        {
          "internalType": "uint256",
          "name": "",
          "type": "uint256"
        }
      ],
      "stateMutability": "view",
      "type": "function"
    },
    {
      "inputs": [
        {
          "internalType": "uint256",
          "name": "tokenId",
          "type": "uint256"
        }
      ],
      "name": "getApproved",
      "outputs": [
        {
          "internalType": "address",
          "name": "",
          "type": "address"
        }
      ],
      "stateMutability": "view",
      "type": "function"
    },
    {
      "inputs": [
        {
          "internalType": "address",
          "name": "owner",
          "type": "address"
        },
        {
          "internalType": "address",
          "name": "operator",
          "type": "address"
        }
      ],
      "name": "isApprovedForAll",
      "outputs": [
        {
          "internalType": "bool",
          "name": "",
          "type": "bool"
        }
      ],
      "stateMutability": "view",
      "type": "function"
    },
    {
      "inputs": [],
      "name": "name",
      "outputs": [
        {
          "internalType": "string",
          "name": "",
          "type": "string"
        }
      ],
      "stateMutability": "view",
      "type": "function"
    },
    {
      "inputs": [],
      "name": "owner",
      "outputs": [
        {
          "internalType": "address",
          "name": "",
          "type": "address"
        }
      ],
      "stateMutability": "view",
      "type": "function"
    },
    {
      "inputs": [
        {
          "internalType": "uint256",
          "name": "tokenId",
          "type": "uint256"
        }
      ],
      "name": "ownerOf",
      "outputs": [
        {
          "internalType": "address",
          "name": "",
          "type": "address"
        }
      ],
      "stateMutability": "view",
      "type": "function"
    },
    {
      "inputs": [],
      "name": "renounceOwnership",
      "outputs": [],
      "stateMutability": "nonpayable",
      "type": "function"
    },
    {
      "inputs": [
        {
          "internalType": "address",
          "name": "from",
          "type": "address"
        },
        {
          "internalType": "address",
          "name": "to",
          "type": "address"
        },
        {
          "internalType": "uint256",
          "name": "tokenId",
          "type": "uint256"
        }
      ],
      "name": "safeTransferFrom",
      "outputs": [],
      "stateMutability": "nonpayable",
      "type": "function"
    },
    {
      "inputs": [
        {
          "internalType": "address",
          "name": "from",
          "type": "address"
        },
        {
          "internalType": "address",
          "name": "to",
          "type": "address"
        },
        {
          "internalType": "uint256",
          "name": "tokenId",
          "type": "uint256"
        },
        {
          "internalType": "bytes",
          "name": "data",
          "type": "bytes"
        }
      ],
      "name": "safeTransferFrom",
      "outputs": [],
      "stateMutability": "nonpayable",
      "type": "function"
    },
    {
      "inputs": [
        {
          "internalType": "address",
          "name": "operator",
          "type": "address"
        },
        {
          "internalType": "bool",
          "name": "approved",
          "type": "bool"
        }
      ],
      "name": "setApprovalForAll",
      "outputs": [],
      "stateMutability": "nonpayable",
      "type": "function"
    },
    {
      "inputs": [
        {
          "internalType": "bytes4",
          "name": "interfaceId",
          "type": "bytes4"
        }
      ],
      "name": "supportsInterface",
      "outputs": [
        {
          "internalType": "bool",
          "name": "",
          "type": "bool"
        }
      ],
      "stateMutability": "view",
      "type": "function"
    },
    {
      "inputs": [],
      "name": "symbol",
      "outputs": [
        {
          "internalType": "string",
          "name": "",
          "type": "string"
        }
      ],
      "stateMutability": "view",
      "type": "function"
    },
    {
      "inputs": [
        {
          "internalType": "uint256",
          "name": "tokenId",
          "type": "uint256"
        }
      ],
      "name": "tokenURI",
      "outputs": [
        {
          "internalType": "string",
          "name": "",
          "type": "string"
        }
      ],
      "stateMutability": "view",
      "type": "function"
    },
    {
      "inputs": [
        {
          "internalType": "address",
          "name": "from",
          "type": "address"
        },
        {
          "internalType": "address",
          "name": "to",
          "type": "address"
        },
        {
          "internalType": "uint256",
          "name": "tokenId",
          "type": "uint256"
        }
      ],
      "name": "transferFrom",
      "outputs": [],
      "stateMutability": "nonpayable",
      "type": "function"
    },
    {
      "inputs": [
        {
          "internalType": "address",
          "name": "newOwner",
          "type": "address"
        }
      ],
      "name": "transferOwnership",
      "outputs": [],
      "stateMutability": "nonpayable",
      "type": "function"
    }
  ],
  "bytecode": "0x60806040523480156200001157600080fd5b5060405162002dd838038062002dd8833981810160405281019062000037919062000571565b81818160009080519060200190620000519291906200044f565b5080600190805190602001906200006a9291906200044f565b5050506200008d62000081620000a860201b60201c565b620000b060201b60201c565b620000a03360016200017660201b60201c565b505062000849565b600033905090565b6000600660009054906101000a900473ffffffffffffffffffffffffffffffffffffffff16905081600660006101000a81548173ffffffffffffffffffffffffffffffffffffffff021916908373ffffffffffffffffffffffffffffffffffffffff1602179055508173ffffffffffffffffffffffffffffffffffffffff168173ffffffffffffffffffffffffffffffffffffffff167f8be0079c531659141344cd1fd0a4f28419497f9722a3daafe3b4186f6b6457e060405160405180910390a35050565b600073ffffffffffffffffffffffffffffffffffffffff168273ffffffffffffffffffffffffffffffffffffffff161415620001e9576040517f08c379a0000000000000000000000000000000000000000000000000000000008152600401620001e09062000654565b60405180910390fd5b620001fa81620003bd60201b60201c565b156200023d576040517f08c379a0000000000000000000000000000000000000000000000000000000008152600401620002349062000632565b60405180910390fd5b620002536000838360016200040660201b60201c565b6200026481620003bd60201b60201c565b15620002a7576040517f08c379a00000000000000000000000000000000000000000000000000000000081526004016200029e9062000632565b60405180910390fd5b6001600360008473ffffffffffffffffffffffffffffffffffffffff1673ffffffffffffffffffffffffffffffffffffffff16815260200190815260200160002060008282540192505081905550816002600083815260200190815260200160002060006101000a81548173ffffffffffffffffffffffffffffffffffffffff021916908373ffffffffffffffffffffffffffffffffffffffff160217905550808273ffffffffffffffffffffffffffffffffffffffff16600073ffffffffffffffffffffffffffffffffffffffff167fddf252ad1be2c89b69c2b068fc378daa952ba7f163c4a11628f55a4df523b3ef60405160405180910390a4620003b96000838360016200040c60201b60201c565b5050565b60008073ffffffffffffffffffffffffffffffffffffffff16620003e7836200041260201b60201c565b73ffffffffffffffffffffffffffffffffffffffff1614159050919050565b50505050565b50505050565b60006002600083815260200190815260200160002060009054906101000a900473ffffffffffffffffffffffffffffffffffffffff169050919050565b8280546200045d906200071c565b90600052602060002090601f016020900481019282620004815760008555620004cd565b82601f106200049c57805160ff1916838001178555620004cd565b82800160010185558215620004cd579182015b82811115620004cc578251825591602001919060010190620004af565b5b509050620004dc9190620004e0565b5090565b5b80821115620004fb576000816000905550600101620004e1565b5090565b60006200051662000510846200069f565b62000676565b9050828152602081018484840111156200052f57600080fd5b6200053c848285620006e6565b509392505050565b600082601f8301126200055657600080fd5b815162000568848260208601620004ff565b91505092915050565b600080604083850312156200058557600080fd5b600083015167ffffffffffffffff811115620005a057600080fd5b620005ae8582860162000544565b925050602083015167ffffffffffffffff811115620005cc57600080fd5b620005da8582860162000544565b9150509250929050565b6000620005f3601c83620006d5565b91506200060082620007f7565b602082019050919050565b60006200061a602083620006d5565b9150620006278262000820565b602082019050919050565b600060208201905081810360008301526200064d81620005e4565b9050919050565b600060208201905081810360008301526200066f816200060b565b9050919050565b60006200068262000695565b905062000690828262000752565b919050565b6000604051905090565b600067ffffffffffffffff821115620006bd57620006bc620007b7565b5b620006c882620007e6565b9050602081019050919050565b600082825260208201905092915050565b60005b8381101562000706578082015181840152602081019050620006e9565b8381111562000716576000848401525b50505050565b600060028204905060018216806200073557607f821691505b602082108114156200074c576200074b62000788565b5b50919050565b6200075d82620007e6565b810181811067ffffffffffffffff821117156200077f576200077e620007b7565b5b80604052505050565b7f4e487b7100000000000000000000000000000000000000000000000000000000600052602260045260246000fd5b7f4e487b7100000000000000000000000000000000000000000000000000000000600052604160045260246000fd5b6000601f19601f8301169050919050565b7f4552433732313a20746f6b656e20616c7265616479206d696e74656400000000600082015250565b7f4552433732313a206d696e7420746f20746865207a65726f2061646472657373600082015250565b61257f80620008596000396000f3fe608060405234801561001057600080fd5b50600436106101005760003560e01c8063715018a611610097578063b88d4fde11610066578063b88d4fde14610299578063c87b56dd146102b5578063e985e9c5146102e5578063f2fde38b1461031557610100565b8063715018a6146102375780638da5cb5b1461024157806395d89b411461025f578063a22cb4651461027d57610100565b806323b872dd116100d357806323b872dd1461019f57806342842e0e146101bb5780636352211e146101d757806370a082311461020757610100565b806301ffc9a71461010557806306fdde0314610135578063081812fc14610153578063095ea7b314610183575b600080fd5b61011f600480360381019061011a9190611aca565b610331565b60405161012c9190611e21565b60405180910390f35b61013d610413565b60405161014a9190611e3c565b60405180910390f35b61016d60048036038101906101689190611b1c565b6104a5565b60405161017a9190611dba565b60405180910390f35b61019d60048036038101906101989190611a8e565b6104eb565b005b6101b960048036038101906101b49190611988565b610603565b005b6101d560048036038101906101d09190611988565b610663565b005b6101f160048036038101906101ec9190611b1c565b610683565b6040516101fe9190611dba565b60405180910390f35b610221600480360381019061021c9190611923565b61070a565b60405161022e9190611fbe565b60405180910390f35b61023f6107c2565b005b6102496107d6565b6040516102569190611dba565b60405180910390f35b610267610800565b6040516102749190611e3c565b60405180910390f35b61029760048036038101906102929190611a52565b610892565b005b6102b360048036038101906102ae91906119d7565b6108a8565b005b6102cf60048036038101906102ca9190611b1c565b61090a565b6040516102dc9190611e3c565b60405180910390f35b6102ff60048036038101906102fa919061194c565b610972565b60405161030c9190611e21565b60405180910390f35b61032f600480360381019061032a9190611923565b610a06565b005b60007f80ac58cd000000000000000000000000000000000000000000000000000000007bffffffffffffffffffffffffffffffffffffffffffffffffffffffff1916827bffffffffffffffffffffffffffffffffffffffffffffffffffffffff191614806103fc57507f5b5e139f000000000000000000000000000000000000000000000000000000007bffffffffffffffffffffffffffffffffffffffffffffffffffffffff1916827bffffffffffffffffffffffffffffffffffffffffffffffffffffffff1916145b8061040c575061040b82610a8a565b5b9050919050565b60606000805461042290612128565b80601f016020809104026020016040519081016040528092919081815260200182805461044e90612128565b801561049b5780601f106104705761010080835404028352916020019161049b565b820191906000526020600020905b81548152906001019060200180831161047e57829003601f168201915b5050505050905090565b60006104b082610af4565b6004600083815260200190815260200160002060009054906101000a900473ffffffffffffffffffffffffffffffffffffffff169050919050565b60006104f682610683565b90508073ffffffffffffffffffffffffffffffffffffffff168373ffffffffffffffffffffffffffffffffffffffff161415610567576040517f08c379a000000000000000000000000000000000000000000000000000000000815260040161055e90611f7e565b60405180910390fd5b8073ffffffffffffffffffffffffffffffffffffffff16610586610b3f565b73ffffffffffffffffffffffffffffffffffffffff1614806105b557506105b4816105af610b3f565b610972565b5b6105f4576040517f08c379a00000000000000000000000000000000000000000000000000000000081526004016105eb90611f9e565b60405180910390fd5b6105fe8383610b47565b505050565b61061461060e610b3f565b82610c00565b610653576040517f08c379a000000000000000000000000000000000000000000000000000000000815260040161064a90611e5e565b60405180910390fd5b61065e838383610c95565b505050565b61067e838383604051806020016040528060008152506108a8565b505050565b60008061068f83610f8f565b9050600073ffffffffffffffffffffffffffffffffffffffff168173ffffffffffffffffffffffffffffffffffffffff161415610701576040517f08c379a00000000000000000000000000000000000000000000000000000000081526004016106f890611f5e565b60405180910390fd5b80915050919050565b60008073ffffffffffffffffffffffffffffffffffffffff168273ffffffffffffffffffffffffffffffffffffffff16141561077b576040517f08c379a000000000000000000000000000000000000000000000000000000000815260040161077290611f1e565b60405180910390fd5b600360008373ffffffffffffffffffffffffffffffffffffffff1673ffffffffffffffffffffffffffffffffffffffff168152602001908152602001600020549050919050565b6107ca610fcc565b6107d4600061104a565b565b6000600660009054906101000a900473ffffffffffffffffffffffffffffffffffffffff16905090565b60606001805461080f90612128565b80601f016020809104026020016040519081016040528092919081815260200182805461083b90612128565b80156108885780601f1061085d57610100808354040283529160200191610888565b820191906000526020600020905b81548152906001019060200180831161086b57829003601f168201915b5050505050905090565b6108a461089d610b3f565b8383611110565b5050565b6108b96108b3610b3f565b83610c00565b6108f8576040517f08c379a00000000000000000000000000000000000000000000000000000000081526004016108ef90611e5e565b60405180910390fd5b6109048484848461127d565b50505050565b606061091582610af4565b600061091f6112d9565b9050600081511161093f576040518060200160405280600081525061096a565b80610949846112f0565b60405160200161095a929190611d96565b6040516020818303038152906040525b915050919050565b6000600560008473ffffffffffffffffffffffffffffffffffffffff1673ffffffffffffffffffffffffffffffffffffffff16815260200190815260200160002060008373ffffffffffffffffffffffffffffffffffffffff1673ffffffffffffffffffffffffffffffffffffffff16815260200190815260200160002060009054906101000a900460ff16905092915050565b610a0e610fcc565b600073ffffffffffffffffffffffffffffffffffffffff168173ffffffffffffffffffffffffffffffffffffffff161415610a7e576040517f08c379a0000000000000000000000000000000000000000000000000000000008152600401610a7590611e9e565b60405180910390fd5b610a878161104a565b50565b60007f01ffc9a7000000000000000000000000000000000000000000000000000000007bffffffffffffffffffffffffffffffffffffffffffffffffffffffff1916827bffffffffffffffffffffffffffffffffffffffffffffffffffffffff1916149050919050565b610afd81611414565b610b3c576040517f08c379a0000000000000000000000000000000000000000000000000000000008152600401610b3390611f5e565b60405180910390fd5b50565b600033905090565b816004600083815260200190815260200160002060006101000a81548173ffffffffffffffffffffffffffffffffffffffff021916908373ffffffffffffffffffffffffffffffffffffffff160217905550808273ffffffffffffffffffffffffffffffffffffffff16610bba83610683565b73ffffffffffffffffffffffffffffffffffffffff167f8c5be1e5ebec7d5bd14f71427d1e84f3dd0314c0f7b2291e5b200ac8c7c3b92560405160405180910390a45050565b600080610c0c83610683565b90508073ffffffffffffffffffffffffffffffffffffffff168473ffffffffffffffffffffffffffffffffffffffff161480610c4e5750610c4d8185610972565b5b80610c8c57508373ffffffffffffffffffffffffffffffffffffffff16610c74846104a5565b73ffffffffffffffffffffffffffffffffffffffff16145b91505092915050565b8273ffffffffffffffffffffffffffffffffffffffff16610cb582610683565b73ffffffffffffffffffffffffffffffffffffffff1614610d0b576040517f08c379a0000000000000000000000000000000000000000000000000000000008152600401610d0290611ebe565b60405180910390fd5b600073ffffffffffffffffffffffffffffffffffffffff168273ffffffffffffffffffffffffffffffffffffffff161415610d7b576040517f08c379a0000000000000000000000000000000000000000000000000000000008152600401610d7290611ede565b60405180910390fd5b610d888383836001611455565b8273ffffffffffffffffffffffffffffffffffffffff16610da882610683565b73ffffffffffffffffffffffffffffffffffffffff1614610dfe576040517f08c379a0000000000000000000000000000000000000000000000000000000008152600401610df590611ebe565b60405180910390fd5b6004600082815260200190815260200160002060006101000a81549073ffffffffffffffffffffffffffffffffffffffff02191690556001600360008573ffffffffffffffffffffffffffffffffffffffff1673ffffffffffffffffffffffffffffffffffffffff168152602001908152602001600020600082825403925050819055506001600360008473ffffffffffffffffffffffffffffffffffffffff1673ffffffffffffffffffffffffffffffffffffffff16815260200190815260200160002060008282540192505081905550816002600083815260200190815260200160002060006101000a81548173ffffffffffffffffffffffffffffffffffffffff021916908373ffffffffffffffffffffffffffffffffffffffff160217905550808273ffffffffffffffffffffffffffffffffffffffff168473ffffffffffffffffffffffffffffffffffffffff167fddf252ad1be2c89b69c2b068fc378daa952ba7f163c4a11628f55a4df523b3ef60405160405180910390a4610f8a838383600161145b565b505050565b60006002600083815260200190815260200160002060009054906101000a900473ffffffffffffffffffffffffffffffffffffffff169050919050565b610fd4610b3f565b73ffffffffffffffffffffffffffffffffffffffff16610ff26107d6565b73ffffffffffffffffffffffffffffffffffffffff1614611048576040517f08c379a000000000000000000000000000000000000000000000000000000000815260040161103f90611f3e565b60405180910390fd5b565b6000600660009054906101000a900473ffffffffffffffffffffffffffffffffffffffff16905081600660006101000a81548173ffffffffffffffffffffffffffffffffffffffff021916908373ffffffffffffffffffffffffffffffffffffffff1602179055508173ffffffffffffffffffffffffffffffffffffffff168173ffffffffffffffffffffffffffffffffffffffff167f8be0079c531659141344cd1fd0a4f28419497f9722a3daafe3b4186f6b6457e060405160405180910390a35050565b8173ffffffffffffffffffffffffffffffffffffffff168373ffffffffffffffffffffffffffffffffffffffff16141561117f576040517f08c379a000000000000000000000000000000000000000000000000000000000815260040161117690611efe565b60405180910390fd5b80600560008573ffffffffffffffffffffffffffffffffffffffff1673ffffffffffffffffffffffffffffffffffffffff16815260200190815260200160002060008473ffffffffffffffffffffffffffffffffffffffff1673ffffffffffffffffffffffffffffffffffffffff16815260200190815260200160002060006101000a81548160ff0219169083151502179055508173ffffffffffffffffffffffffffffffffffffffff168373ffffffffffffffffffffffffffffffffffffffff167f17307eab39ab6107e8899845ad3d59bd9653f200f220920489ca2b5937696c31836040516112709190611e21565b60405180910390a3505050565b611288848484610c95565b61129484848484611461565b6112d3576040517f08c379a00000000000000000000000000000000000000000000000000000000081526004016112ca90611e7e565b60405180910390fd5b50505050565b606060405180602001604052806000815250905090565b6060600060016112ff846115f8565b01905060008167ffffffffffffffff811115611344577f4e487b7100000000000000000000000000000000000000000000000000000000600052604160045260246000fd5b6040519080825280601f01601f1916602001820160405280156113765781602001600182028036833780820191505090505b509050600082602001820190505b600115611409578080600190039150507f3031323334353637383961626364656600000000000000000000000000000000600a86061a8153600a85816113f3577f4e487b7100000000000000000000000000000000000000000000000000000000600052601260045260246000fd5b049450600085141561140457611409565b611384565b819350505050919050565b60008073ffffffffffffffffffffffffffffffffffffffff1661143683610f8f565b73ffffffffffffffffffffffffffffffffffffffff1614159050919050565b50505050565b50505050565b60006114828473ffffffffffffffffffffffffffffffffffffffff1661182f565b156115eb578373ffffffffffffffffffffffffffffffffffffffff1663150b7a026114ab610b3f565b8786866040518563ffffffff1660e01b81526004016114cd9493929190611dd5565b602060405180830381600087803b1580156114e757600080fd5b505af192505050801561151857506040513d601f19601f820116820180604052508101906115159190611af3565b60015b61159b573d8060008114611548576040519150601f19603f3d011682016040523d82523d6000602084013e61154d565b606091505b50600081511415611593576040517f08c379a000000000000000000000000000000000000000000000000000000000815260040161158a90611e7e565b60405180910390fd5b805181602001fd5b63150b7a0260e01b7bffffffffffffffffffffffffffffffffffffffffffffffffffffffff1916817bffffffffffffffffffffffffffffffffffffffffffffffffffffffff1916149150506115f0565b600190505b949350505050565b600080600090507a184f03e93ff9f4daa797ed6e38ed64bf6a1f010000000000000000831061167c577a184f03e93ff9f4daa797ed6e38ed64bf6a1f0100000000000000008381611672577f4e487b7100000000000000000000000000000000000000000000000000000000600052601260045260246000fd5b0492506040810190505b6d04ee2d6d415b85acef810000000083106116df576d04ee2d6d415b85acef810000000083816116d5577f4e487b7100000000000000000000000000000000000000000000000000000000600052601260045260246000fd5b0492506020810190505b662386f26fc10000831061173457662386f26fc10000838161172a577f4e487b7100000000000000000000000000000000000000000000000000000000600052601260045260246000fd5b0492506010810190505b6305f5e1008310611783576305f5e1008381611779577f4e487b7100000000000000000000000000000000000000000000000000000000600052601260045260246000fd5b0492506008810190505b61271083106117ce5761271083816117c4577f4e487b7100000000000000000000000000000000000000000000000000000000600052601260045260246000fd5b0492506004810190505b60648310611817576064838161180d577f4e487b7100000000000000000000000000000000000000000000000000000000600052601260045260246000fd5b0492506002810190505b600a8310611826576001810190505b80915050919050565b6000808273ffffffffffffffffffffffffffffffffffffffff163b119050919050565b600061186561186084611ffe565b611fd9565b90508281526020810184848401111561187d57600080fd5b6118888482856120e6565b509392505050565b60008135905061189f816124ed565b92915050565b6000813590506118b481612504565b92915050565b6000813590506118c98161251b565b92915050565b6000815190506118de8161251b565b92915050565b600082601f8301126118f557600080fd5b8135611905848260208601611852565b91505092915050565b60008135905061191d81612532565b92915050565b60006020828403121561193557600080fd5b600061194384828501611890565b91505092915050565b6000806040838503121561195f57600080fd5b600061196d85828601611890565b925050602061197e85828601611890565b9150509250929050565b60008060006060848603121561199d57600080fd5b60006119ab86828701611890565b93505060206119bc86828701611890565b92505060406119cd8682870161190e565b9150509250925092565b600080600080608085870312156119ed57600080fd5b60006119fb87828801611890565b9450506020611a0c87828801611890565b9350506040611a1d8782880161190e565b925050606085013567ffffffffffffffff811115611a3a57600080fd5b611a46878288016118e4565b91505092959194509250565b60008060408385031215611a6557600080fd5b6000611a7385828601611890565b9250506020611a84858286016118a5565b9150509250929050565b60008060408385031215611aa157600080fd5b6000611aaf85828601611890565b9250506020611ac08582860161190e565b9150509250929050565b600060208284031215611adc57600080fd5b6000611aea848285016118ba565b91505092915050565b600060208284031215611b0557600080fd5b6000611b13848285016118cf565b91505092915050565b600060208284031215611b2e57600080fd5b6000611b3c8482850161190e565b91505092915050565b611b4e81612072565b82525050565b611b5d81612084565b82525050565b6000611b6e8261202f565b611b788185612045565b9350611b888185602086016120f5565b611b91816121e9565b840191505092915050565b6000611ba78261203a565b611bb18185612056565b9350611bc18185602086016120f5565b611bca816121e9565b840191505092915050565b6000611be08261203a565b611bea8185612067565b9350611bfa8185602086016120f5565b80840191505092915050565b6000611c13602d83612056565b9150611c1e826121fa565b604082019050919050565b6000611c36603283612056565b9150611c4182612249565b604082019050919050565b6000611c59602683612056565b9150611c6482612298565b604082019050919050565b6000611c7c602583612056565b9150611c87826122e7565b604082019050919050565b6000611c9f602483612056565b9150611caa82612336565b604082019050919050565b6000611cc2601983612056565b9150611ccd82612385565b602082019050919050565b6000611ce5602983612056565b9150611cf0826123ae565b604082019050919050565b6000611d08602083612056565b9150611d13826123fd565b602082019050919050565b6000611d2b601883612056565b9150611d3682612426565b602082019050919050565b6000611d4e602183612056565b9150611d598261244f565b604082019050919050565b6000611d71603d83612056565b9150611d7c8261249e565b604082019050919050565b611d90816120dc565b82525050565b6000611da28285611bd5565b9150611dae8284611bd5565b91508190509392505050565b6000602082019050611dcf6000830184611b45565b92915050565b6000608082019050611dea6000830187611b45565b611df76020830186611b45565b611e046040830185611d87565b8181036060830152611e168184611b63565b905095945050505050565b6000602082019050611e366000830184611b54565b92915050565b60006020820190508181036000830152611e568184611b9c565b905092915050565b60006020820190508181036000830152611e7781611c06565b9050919050565b60006020820190508181036000830152611e9781611c29565b9050919050565b60006020820190508181036000830152611eb781611c4c565b9050919050565b60006020820190508181036000830152611ed781611c6f565b9050919050565b60006020820190508181036000830152611ef781611c92565b9050919050565b60006020820190508181036000830152611f1781611cb5565b9050919050565b60006020820190508181036000830152611f3781611cd8565b9050919050565b60006020820190508181036000830152611f5781611cfb565b9050919050565b60006020820190508181036000830152611f7781611d1e565b9050919050565b60006020820190508181036000830152611f9781611d41565b9050919050565b60006020820190508181036000830152611fb781611d64565b9050919050565b6000602082019050611fd36000830184611d87565b92915050565b6000611fe3611ff4565b9050611fef828261215a565b919050565b6000604051905090565b600067ffffffffffffffff821115612019576120186121ba565b5b612022826121e9565b9050602081019050919050565b600081519050919050565b600081519050919050565b600082825260208201905092915050565b600082825260208201905092915050565b600081905092915050565b600061207d826120bc565b9050919050565b60008115159050919050565b60007fffffffff0000000000000000000000000000000000000000000000000000000082169050919050565b600073ffffffffffffffffffffffffffffffffffffffff82169050919050565b6000819050919050565b82818337600083830152505050565b60005b838110156121135780820151818401526020810190506120f8565b83811115612122576000848401525b50505050565b6000600282049050600182168061214057607f821691505b602082108114156121545761215361218b565b5b50919050565b612163826121e9565b810181811067ffffffffffffffff82111715612182576121816121ba565b5b80604052505050565b7f4e487b7100000000000000000000000000000000000000000000000000000000600052602260045260246000fd5b7f4e487b7100000000000000000000000000000000000000000000000000000000600052604160045260246000fd5b6000601f19601f8301169050919050565b7f4552433732313a2063616c6c6572206973206e6f7420746f6b656e206f776e6560008201527f72206f7220617070726f76656400000000000000000000000000000000000000602082015250565b7f4552433732313a207472616e7366657220746f206e6f6e20455243373231526560008201527f63656976657220696d706c656d656e7465720000000000000000000000000000602082015250565b7f4f776e61626c653a206e6577206f776e657220697320746865207a65726f206160008201527f6464726573730000000000000000000000000000000000000000000000000000602082015250565b7f4552433732313a207472616e736665722066726f6d20696e636f72726563742060008201527f6f776e6572000000000000000000000000000000000000000000000000000000602082015250565b7f4552433732313a207472616e7366657220746f20746865207a65726f2061646460008201527f7265737300000000000000000000000000000000000000000000000000000000602082015250565b7f4552433732313a20617070726f766520746f2063616c6c657200000000000000600082015250565b7f4552433732313a2061646472657373207a65726f206973206e6f74206120766160008201527f6c6964206f776e65720000000000000000000000000000000000000000000000602082015250565b7f4f776e61626c653a2063616c6c6572206973206e6f7420746865206f776e6572600082015250565b7f4552433732313a20696e76616c696420746f6b656e2049440000000000000000600082015250565b7f4552433732313a20617070726f76616c20746f2063757272656e74206f776e6560008201527f7200000000000000000000000000000000000000000000000000000000000000602082015250565b7f4552433732313a20617070726f76652063616c6c6572206973206e6f7420746f60008201527f6b656e206f776e6572206f7220617070726f76656420666f7220616c6c000000602082015250565b6124f681612072565b811461250157600080fd5b50565b61250d81612084565b811461251857600080fd5b50565b61252481612090565b811461252f57600080fd5b50565b61253b816120dc565b811461254657600080fd5b5056fea2646970667358221220b6927542ca0a902ee5e56f72c1b38128e13ae9dbc859914c59e9e3504987ee9864736f6c63430008010033",
  "immutableReferences": {},
  "source": "// SPDX-License-Identifier: MIT\r\npragma solidity ^0.8.0;\r\n\r\nimport '../node_modules/@openzeppelin/contracts/token/ERC721/ERC721.sol';\r\nimport \"../node_modules/@openzeppelin/contracts/access/Ownable.sol\";\r\n\r\ncontract Token is ERC721 , Ownable{\r\n  constructor(\r\n    string memory name, \r\n    string memory ticker\r\n  ) \r\n    ERC721(name, ticker) \r\n  {\r\n    _mint(msg.sender, 1);\r\n  }\r\n}\r\n",
  "sourcePath": "C:\\GitHub\\251-atomic-swap-ethereum-bsc\\contracts\\Token.sol",
  "compiler": {
    "name": "solc",
    "version": "0.8.1+commit.df193b15.Emscripten.clang"
  },
  "schemaVersion": "3.4.16",
  "updatedAt": "2023-10-30T18:37:04.915Z",
  "devdoc": {
    "kind": "dev",
    "methods": {
      "approve(address,uint256)": {
        "details": "See {IERC721-approve}."
      },
      "balanceOf(address)": {
        "details": "See {IERC721-balanceOf}."
      },
      "getApproved(uint256)": {
        "details": "See {IERC721-getApproved}."
      },
      "isApprovedForAll(address,address)": {
        "details": "See {IERC721-isApprovedForAll}."
      },
      "name()": {
        "details": "See {IERC721Metadata-name}."
      },
      "owner()": {
        "details": "Returns the address of the current owner."
      },
      "ownerOf(uint256)": {
        "details": "See {IERC721-ownerOf}."
      },
      "renounceOwnership()": {
        "details": "Leaves the contract without owner. It will not be possible to call `onlyOwner` functions. Can only be called by the current owner. NOTE: Renouncing ownership will leave the contract without an owner, thereby disabling any functionality that is only available to the owner."
      },
      "safeTransferFrom(address,address,uint256)": {
        "details": "See {IERC721-safeTransferFrom}."
      },
      "safeTransferFrom(address,address,uint256,bytes)": {
        "details": "See {IERC721-safeTransferFrom}."
      },
      "setApprovalForAll(address,bool)": {
        "details": "See {IERC721-setApprovalForAll}."
      },
      "supportsInterface(bytes4)": {
        "details": "See {IERC165-supportsInterface}."
      },
      "symbol()": {
        "details": "See {IERC721Metadata-symbol}."
      },
      "tokenURI(uint256)": {
        "details": "See {IERC721Metadata-tokenURI}."
      },
      "transferFrom(address,address,uint256)": {
        "details": "See {IERC721-transferFrom}."
      },
      "transferOwnership(address)": {
        "details": "Transfers ownership of the contract to a new account (`newOwner`). Can only be called by the current owner."
      }
    },
    "version": 1
  },
  "userdoc": {
    "kind": "user",
    "methods": {},
    "version": 1
  }
}